:020000040800F2
:100000000000022031090008990700089B0700083A
:100010009D0700089F070008A107000800000000D6
:10002000000000000000000000000000A30700081E
:10003000A507000800000000A7070008A90700089E
:100040008109000881090008810900088109000868
:100050008109000881090008810900088109000858
:100060008109000881090008810900088109000848
:100070008109000881090008810900088109000838
:100080008109000881090008810900088109000828
:100090008109000881090008810900088109000818
:1000A0008109000881090008810900088109000808
:1000B00081090008810900088109000881090008F8
:1000C00081090008810900088109000881090008E8
:1000D00081090008750500088109000881090008E8
:1000E00081090008810900088109000881090008C8
:1000F00081090008810900088109000881090008B8
:1001000081090008810900088109000881090008A7
:100110008109000881090008810900088109000897
:100120008109000881090008810900088109000887
:100130008109000881090008810900088109000877
:100140008109000881090008810900088109000867
:10015000810900088109000881090008C505000817
:100160008109000881090008810900088109000847
:1001700081090008810900088109000800000000C9
:08018000810900088109000853
:1001880010B5054C237833B9044B13B10448AFF3C9
:1001980000800123237010BD3C04002000000000F3
:1001A8001018000808B5034B1BB103490348AFF307
:1001B800008008BD0000000040040020101800085E
:1001C80053B94AB9002908BF00281CBF4FF0FF31B6
:1001D8004FF0FF3000F074B9ADF1080C6DE904CEB2
:1001E80000F006F8DDF804E0DDE9022304B070470A
:1001F8002DE9F047089E0D4604468846002B4DD150
:100208008A42944668D9B2FA82F252B101FA02F3EC
:10021800C2F1200120FA01F10CFA02FC41EA0308BC
:1002280094404FEA1C45210CB8FBF5FE1FFA8CF7E9
:1002380005FB1E8341EA03430EFB07F199420BD9E4
:100248001CEB03030EF1FF3080F01E81994240F24F
:100258001B81AEF1020E63445B1AA4B2B3FBF5F046
:1002680005FB103344EA034400FB07F7A7420AD909
:100278001CEB040400F1FF3380F00881A74240F230
:10028800058164440238E41B40EA0E4000211EB197
:10029800D4400023C6E90043BDE8F0878B4208D963
:1002A800002E00F0EE800021C6E900050846BDE8F2
:1002B800F087B3FA83F100294AD1AB4202D38242D4
:1002C80000F2F980841A65EB030301209846002E9A
:1002D800E2D0C6E90048DFE702B9FFDEB2FA82F2EF
:1002E800002A40F09180A1EB0C054FEA1C471FFA49
:1002F8008CFE0121B5FBF7F307FB1350250C45EAEB
:1003080000450EFB03F0A84208D91CEB050503F1D4
:10031800FF3802D2A84200F2CB8043462D1AA4B27D
:10032800B5FBF7F007FB105544EA05440EFB00FE49
:10033800A64508D91CEB040400F1FF3502D2A645F6
:1003480000F2BB802846A4EB0E0440EA03409EE777
:10035800C1F120078B4022FA07FC4CEA030C20FA73
:1003680007F405FA01F31C43FD404FEA1C4900FA63
:1003780001F3B5FBF9F8200C1FFA8CFE09FB1855A0
:1003880040EA054508FB0EF0A84202FA01F20BD933
:100398001CEB050508F1FF3A80F08880A84240F27E
:1003A8008580A8F1020865442D1AA4B2B5FBF9F0BE
:1003B80009FB105544EA054500FB0EFEAE4508D979
:1003C8001CEB050500F1FF346CD2AE456AD9023842
:1003D800654440EA0840A0FB0294A5EB0E05A5423F
:1003E800C846A64656D353D05EB1B3EB080265EBB8
:1003F8000E0505FA07F722FA01F3CD401F43C6E9B7
:1004080000750021BDE8F087C2F1200320FA03F14E
:100418000CFA02FC25FA03F395400D434FEA1C47FA
:100428001FFA8CFEB3FBF7F107FB11302B0C43EAE4
:10043800004301FB0EF0984204FA02F408D91CEBC1
:10044800030301F1FF382FD298422DD902396344B2
:100458001B1AADB2B3FBF7F007FB103345EA0345AF
:1004680000FB0EF3AB4208D91CEB050500F1FF3881
:1004780016D2AB4214D902386544ED1A40EA01415C
:1004880038E73146304607E78646E5E61846FAE695
:100498004B45A9D2B9EB020864EB0C0E0138A3E76F
:1004A8004046EAE7204694E74146D1E7D0467BE755
:1004B800023B654432E7084609E76444023842E7EC
:1004C800704700BF30B58BB000240594069407949C
:1004D800089409940094234B1A6B42F040021A6363
:1004E8001A6B02F040020092009A01941A6B42F0D3
:1004F80001021A631A6B02F001020192019A029436
:100508001A6B42F002021A631A6B02F0020202929C
:10051800029A03941A6B42F004021A631A6B02F0EF
:1005280004020392039A04941A6B42F080021A633D
:100538001B6B03F080030493049B0B4D22464FF47E
:10054800E051284600F0DEFB4FF4E0530593012309
:1005580006930794089405A9284600F0E1FA0BB021
:1005680030BD00BF00380240001C024000B583B017
:10057800104B1B681A6812F0200F06D11A6812F087
:10058800100F0CD103B05DF804FB5B68DBB28DF88B
:1005980007304FF48051084800F0BAFBF2E75B6877
:1005A800DBB28DF8073000224FF48051024800F08A
:1005B800A9FBE7E758040020001C024000B583B0FF
:1005C800104B1B681A6812F0200F06D11A6812F037
:1005D800100F0CD103B05DF804FB5B68DBB28DF83B
:1005E80007304FF40061084800F092FBF2E75B68BF
:1005F800DBB28DF8073000224FF40061024800F0AA
:1006080081FBE7E79C040020001C024072B6FEE76D
:1006180000B595B03022002108A801F033F8002376
:10062800039304930593069307930193204A116C4F
:1006380041F080511164126C02F080520192019ACB
:1006480002931C4B1A6842F480421A601B6803F438
:1006580080430293029B012308934FF4803309934C
:1006680002230E934FF480020F9206221092A822C2
:10067800119212930423139308A800F053FB98B91E
:100688000F23039302230493002305934FF4A053ED
:1006980006934FF480530793052103A800F090FDBB
:1006A80020B915B05DF804FBFFF7B0FFFFF7AEFF08
:1006B800003802400070004010B500F085F9FFF7DF
:1006C800A7FFFFF7FFFE00F071F800F089F81E4C55
:1006D80000224FF48051204600F014FB00224FF412
:1006E8000061204600F00EFB00224FF48061204696
:1006F80000F008FB154B1B68DA6842F02002DA604C
:10070800DA6842F01002DA60114B1B68DA6842F0CE
:100718002002DA60DA6842F01002DA600D4C6423D5
:100728000C222146094800F01CFF4FF4FA7000F033
:1007380077F964230C222146054800F012FF4FF494
:10074800FA7000F06DF9E9E7001C02405804002037
:100758009C0400202818000882B0002100910B4B4F
:100768005A6C42F480425A645A6C02F480420092F5
:10077800009A01911A6C42F080521A641B6C03F0C3
:1007880080530193019B02B0704700BF00380240BC
:10079800FEE7FEE7FEE7FEE7FEE7704770477047B3
:1007A80008B500F02BF908BD7047000008B50A48E5
:1007B8000A4B03604FF4E133436000238360C36056
:1007C80003610C2242618361C36100F09BFE00B9A2
:1007D80008BDFFF71BFFFBE758040020001001408D
:1007E80008B50A480A4B03604FF4E133436000231D
:1007F8008360C36003610C2242618361C36100F0BE
:1008080081FE00B908BDFFF701FFFBE79C0400204B
:1008180000140140F0B58BB00023059306930793AD
:100828000893099303683A4A934204D0394A934299
:1008380041D00BB0F0BD00240094374B5A6C42F005
:1008480010025A645A6C02F010020092009A019445
:100858001A6B42F002021A631A6B02F0020201924A
:10086800019A02941A6B42F001021A631B6B03F09F
:1008780001030293029B8023059302270697032610
:1008880008960725099505A9244800F049F94FF469
:1008980000730593069707940896099505A92048BB
:1008A80000F03EF922462146252000F0DFF82520F9
:1008B80000F014F9BDE700240394174B5A6C42F07A
:1008C80020025A645A6C02F020020392039A04949C
:1008D8001A6B42F040021A631B6B03F04003049347
:1008E800049B4FF484430593022306930323089340
:1008F8000823099305A90B4800F012F9224621465E
:10090800472000F0B3F8472000F0E8F891E700BF6F
:100918000010014000140140003802400004024069
:100928000000024000180240DFF834D00D480E499C
:100938000E4A002302E0D458C4500433C4188C4231
:10094800F9D30B4A0B4C002301E013600432A24296
:10095800FBD3FFF729FF00F071FEFFF7ADFE7047EC
:1009680000000220000000203C0400206818000855
:100978003C040020E8040020FEE7000010B504460F
:100988000E4B18784FF47A73B3FBF0F30C4A1068E7
:10099800B0FBF3F000F0B0F868B90F2C01D90120D2
:1009A8000AE0002221464FF0FF3000F05FF8054BC7
:1009B8001C60002000E0012010BD00BF04000020E2
:1009C800000000200800002008B50B4B1A6842F40C
:1009D80000721A601A6842F480621A601A6842F457
:1009E80080721A60032000F02FF80F20FFF7C6FF6F
:1009F800FFF7B2FE002008BD003C0240034A116820
:100A0800034B1B780B441360704700BFE0040020C1
:100A180004000020014B1868704700BFE004002064
:100A280038B50446FFF7F6FF0546B4F1FF3F02D09C
:100A3800044B1B781C44FFF7EDFF401BA042FAD380
:100A480038BD00BF04000020074AD36823F4E063E0
:100A58001B041B0C000200F4E060034343F0BF6377
:100A680043F40033D360704700ED00E000B5194B44
:100A7800DB68C3F30223C3F1070CBCF1040F28BFE2
:100A88004FF0040C03F1040EBEF1060F18D9033B16
:100A98004FF0FF3E0EFA0CFC21EA0C0199400EFAC9
:100AA80003F322EA0303194300280BDB0901C9B247
:100AB80000F1604000F5614080F800135DF804FB28
:100AC8000023E5E700F00F000901C9B2024B1954F1
:100AD800F4E700BF00ED00E014ED00E0002807DBBC
:100AE80000F01F02400901239340024A42F82030D7
:100AF800704700BF00E100E00138B0F1807F0BD201
:100B08004FF0E0235861054AF02182F823100020B5
:100B1800986107221A6170470120704700ED00E0D4
:100B280000230F2B00F2E48070B582B060E0856886
:100B38005E000324B44025EA0405CC68B4402C4385
:100B48008460456825EA02054C68C4F300129A409F
:100B58002A4342605AE0DC08083450F8246003F065
:100B6800070295000F22AA4026EA020E0A69AA4047
:100B780042EA0E0240F824205CE0072200E000224E
:100B880002FA0EF22A4302345A4D45F824205A4AF2
:100B980094686FEA0C0224EA0C054E6816F4801F6C
:100BA80001D04CEA0405544CA560E46802EA040547
:100BB8004E6816F4001F01D04CEA04054E4CE5605F
:100BC800646802EA04054E6816F4003F01D04CEA56
:100BD8000405494C6560246822404D6815F4803F3F
:100BE80001D04CEA0402444C226001330F2B7DD81B
:100BF80001229A400C6804EA020C32EA0404F4D197
:100C08004C6804F00304013C012C90D94A6802F0B6
:100C18000302032A09D0C4685D000322AA4024EA1B
:100C280002048A68AA402243C2604A6802F00302AA
:100C3800022A90D004684FEA430E032202FA0EF209
:100C480024EA02044A6802F0030202FA0EF222437E
:100C580002604A6812F4403FC7D000220192274A36
:100C6800546C44F480445464526C02F480420192FF
:100C7800019A9C08A51C1F4A52F8255003F003024C
:100C88004FEA820E0F2202FA0EF225EA02051C4AEA
:100C980090423FF474AF02F5806290421AD002F598
:100CA8008062904218D002F58062904216D002F518
:100CB8008062904214D002F58062904212D002F510
:100CC8008062904210D002F5806290423FF455AFA6
:100CD800082255E7012253E7022251E703224FE792
:100CE80004224DE705224BE7062249E702B070BD12
:100CF800704700BF00380140003C01400038024006
:100D0800000002400AB1816170470904816170479F
:100D1800436901EA030221EA030141EA02418161D0
:100D280070470000002800F0E08170B582B00446EA
:100D3800036813F0010F3BD09F4B9B6803F00C0333
:100D4800042B2CD09C4B9B6803F00C03082B21D060
:100D58006368B3F5803F4FD0B3F5A02F52D0964BC0
:100D68001A6822F480321A601A6822F480221A6003
:100D78006368002B50D0FFF74DFE05468E4B1B686D
:100D880013F4003F14D1FFF745FE401B6428F5D942
:100D98000320B1E1884B5B6813F4800FD8D0864BF1
:100DA8001B6813F4003F03D06368002B00F09F8199
:100DB800236813F0020F54D07F4B9B6813F00C0F7D
:100DC8003ED07D4B9B6803F00C03082B33D0E368BF
:100DD800002B68D0794B01221A60FFF71BFE0546ED
:100DE800754B1B6813F0020F54D1FFF713FE401B1D
:100DF8000228F5D903207FE16F4A136843F4803352
:100E08001360B5E76C4B1A6842F480221A601A68BE
:100E180042F480321A60ABE7FFF7FCFD0546664BEB
:100E28001B6813F4003FC3D0FFF7F4FD401B642890
:100E3800F5D9032060E1604B5B6813F4800FC6D1DD
:100E48005D4B1B6813F0020F03D0E368012B40F0E1
:100E58005081594A136823F0F803216943EAC10312
:100E68001360236813F0080F42D063696BB3534BC8
:100E78000122C3F8802EFFF7CDFD05464E4B5B6F70
:100E880013F0020F34D1FFF7C5FD401B0228F5D936
:100E9800032031E1484A136823F0F803216943EA43
:100EA800C1031360DDE7454B00221A60FFF7B2FD6E
:100EB8000546414B1B6813F0020FD2D0FFF7AAFD7D
:100EC800401B0228F5D9032016E13C4B0022C3F849
:100ED800802EFFF79FFD0546374B5B6F13F0020F1F
:100EE80006D0FFF797FD401B0228F5D9032003E140
:100EF800236813F0040F77D02F4B1B6C13F0805F1F
:100F080033D1002301932C4B1A6C42F080521A649F
:100F18001B6C03F080530193019B0125284B1B6830
:100F280013F4807F23D0A368012B34D0052B38D04D
:100F3800214B1A6F22F001021A671A6F22F004027D
:100F48001A67A368002B3DD0FFF764FD06461A4BCD
:100F58001B6F13F0020F46D1FFF75CFD801B41F2B7
:100F680088339842F3D90320C6E00025D6E7144A0F
:100F7800136843F480731360FFF74CFD0646104B6B
:100F88001B6813F4807FCED1FFF744FD801B022835
:100F9800F5D90320B0E0084A136F43F00103136743
:100FA800CFE7054B1A6F42F004021A671A6F42F036
:100FB80001021A67C5E700BF003802400000474237
:100FC80000700040FFF726FD0646524B1B6F13F0DA
:100FD800020F08D0FFF71EFD801B41F288339842AC
:100FE800F3D9032088E0EDB9A369002B00F08380D2
:100FF800484A926802F00C02082A51D0022B17D0F6
:10100800454B00221A66FFF705FD0446414B1B6855
:1010180013F0007F42D0FFF7FDFC001B0228F5D932
:10102800032069E03B4A136C23F080531364DBE729
:10103800394B00221A66FFF7EDFC0546354B1B6855
:1010480013F0007F06D0FFF7E5FC401B0228F5D916
:10105800032051E0E369226A1343626A43EA821378
:10106800A26A5208013A43EA0243E26A43EA026387
:10107800284A5360284B01221A66FFF7CBFC044626
:10108800244B1B6813F0007F06D1FFF7C3FC001B3D
:101098000228F5D903202FE000202DE000202BE0C6
:1010A800012B2BD01B4B5B6803F48001E269914252
:1010B80026D103F03F02216A8A4223D1616A47F6AA
:1010C800C0721A40B2EB811F1ED103F44031A26AEC
:1010D8005208013AB1EB024F18D103F07063E26A8B
:1010E800B3EB026F14D1002006E001207047012005
:1010F80002E0012000E0002002B070BD0120FBE703
:101108000120F9E70120F7E70120F5E70120F3E7DF
:101118000120F1E7003802400000474208B5254B9E
:101128009B6803F00C03042B3FD0082B3FD1214BC5
:101138005A6802F03F025B6813F4800F12D01D4B0F
:101148005968C1F388111C480023A1FB0001FFF76F
:1011580037F8184B5B68C3F3014301335B00B0FBFE
:10116800F3F025E0134B5968C1F3881C4FEA4C1182
:10117800B1EB0C006EEB0E0E4FEA8E1343EA906350
:101188008101091A63EB0E03DB0043EA5173C900BE
:1011980011EB0C0C43F10003990200234FEA8C2059
:1011A80041EA9C51FFF70CF8D3E7034800E00348F5
:1011B80008BD00BF00380240001BB7000024F4003F
:1011C800002800F09B8070B50D4604464F4B1B6805
:1011D80003F007038B4208D2CBB24C4A1370136852
:1011E80003F007038B4240F08B80236813F0020F53
:1011F80017D013F0040F04D0454A936843F4E05322
:101208009360236813F0080F04D0414A936843F4AD
:10121800604393603E4A936823F0F003A1680B4350
:101228009360236813F0010F32D06368012B21D03B
:101238009A1E012A25D9364A126812F0020F61D087
:1012480033498A6822F0030213438B60FFF7E2FBFD
:1012580006462F4B9B6803F00C036268B3EB820FC2
:1012680016D0FFF7D7FB801B41F288339842F0D99C
:10127800032042E0264A126812F4003FE0D1012020
:101288003BE0234A126812F0007FD9D1012034E0F4
:101298001E4B1B6803F00703AB4207D9EAB21B4B8E
:1012A8001A701B6803F00703AB422DD1236813F0B3
:1012B800040F06D0164A936823F4E053E1680B4301
:1012C8009360236813F0080F07D0114A936823F43A
:1012D8006043216943EAC1039360FFF71FFF0C4B8A
:1012E8009B68C3F303130B4AD35CD8400A4B1860BE
:1012F8000A4B1868FFF742FB002070BD01207047B9
:101308000120FAE70120F8E70120F6E7003C024057
:1013180000380240381800080000002008000020AB
:10132800014B1868704700BF0000002008B5FFF7A0
:10133800F7FF044B9B68C3F38223034AD35CD8406E
:1013480008BD00BF003802404818000808B5FFF77C
:10135800E7FF044B9B68C3F34233034AD35CD8408E
:1013680008BD00BF003802404818000838B50446D8
:101378000268136923F44053C1680B4313618368FF
:101388000269134342691343C2691A430168CB686F
:1013980023F4164323F00C031343CB60026853690C
:1013A80023F4407381690B4353610368314A9342C4
:1013B80006D002F58062934202D0FFF7B7FF01E042
:1013C800FFF7C4FFE369B3F5004F29D000210318E4
:1013D80049411B1841F10001C90041EA5371DB0082
:1013E800181863684FEA83024FEA937341F10001CA
:1013F800FEF7E6FE204DA5FB00325109642303FBEE
:1014080011031B013233A5FB03235B0903F0F00230
:1014180002EB011203F00F03216813448B6038BDFF
:101428000023021843EB0301121841F10001C9001F
:1014380041EA5271D200101841F100016268921815
:101448005B41FEF7BDFE0C4DA5FB0032510964233C
:1014580003FB1103DB003233A5FB03235B095A00AE
:1014680002F4F87202EB011203F007032168134437
:101478008B60D4E7001001401F85EB512DE9F8433C
:1014880005460F4616469946DDF820802C682468E4
:1014980037EA04030CBF4FF0010C4FF0000CB445C1
:1014A8002DD1B8F1FF3FF1D0B8F1000F05D0FFF70B
:1014B800B1FAA0EB09004045E8D92A6802F10C030B
:1014C80053E8003F23F4D0730C3242E8003100297E
:1014D800F3D12A6802F1140353E8003F23F0010313
:1014E800143242E800310029F3D1202385F83D3039
:1014F80085F83E30002385F83C30032000E00020CA
:10150800BDE8F88358B310B5044690F83D300BB3E6
:10151800242384F83D302268D36823F40053D36031
:101528002046FFF723FF2268136923F490431361D1
:101538002268536923F02A0353612268D36843F46D
:101548000053D36000202064202384F83D3084F8C1
:101558003E3010BD80F83C30FFF75CF9D8E7012039
:1015680070472DE9F04182B01E4690F83D30DBB25D
:10157800202B54D104460D469046002953D0002A0A
:1015880053D090F83C30012B51D0012380F83C30E7
:1015980000230364212380F83D30FFF73BFA074618
:1015A800A4F82480A4F82680A368B3F5805F05D04A
:1015B8004FF00008002384F83C3012E0236913B18F
:1015C8004FF00008F6E7A8460025F3E738F8023B95
:1015D8002268C3F308035360E28C92B2013A92B2D4
:1015E800E284E38C9BB273B100963B4600228021D3
:1015F8002046FFF743FFE0B9002DE7D015F8012B8F
:1016080023685A60E8E700963B46002240212046BE
:10161800FFF734FF78B9202384F83D3000E002203A
:1016280002B0BDE8F0810120FAE70120F8E70220C6
:10163800F6E70320F4E70320F2E7000070B50D4E4B
:101648000D4D761BB61006D0002455F8043B013426
:101658009847A642F9D1094E094D761B00F0D4F8F7
:10166800B61006D0002455F8043B01349847A6422A
:10167800F9D170BD5C1800085C18000864180008EF
:101688005C180008830730B548D0541E002A3FD0A4
:10169800CAB2034601E0013C3AD303F8012B9D0787
:1016A800F9D1032C2DD9CDB245EA05250F2C45EAF1
:1016B800054536D9A4F1100222F00F0C03F1200ED3
:1016C800E6444FEA121C03F1100242E9045542E9CC
:1016D800025510327245F8D10CF1010214F00C0FCA
:1016E80003EB021204F00F0C13D0ACF1040323F047
:1016F80003030433134442F8045B9342FBD10CF018
:1017080003042CB1CAB21C4403F8012B9C42FBD140
:1017180030BD64461346002CF4D1F9E7034614465D
:10172800BFE71A46A446E0E7024B13B1024800F0AF
:1017380005B8704700000000511700080023014653
:101748001A46184600F01AB838B5084B084D5B1B06
:101758009C1007D0043B1D44013C55F804399847B8
:10176800002CF9D1BDE8384000F054B868180008DA
:1017780064180008704700BF704700BF2DE9F047A4
:10178800DFF87CA00646DAF8000098460F46914636
:10179800FFF7F0FF1B4B1B68D3F8484124B365687B
:1017A8001F2D26DC5EB96B1C0235DAF80000636079
:1017B80044F82570FFF7E0FF0020BDE8F08704EB50
:1017C80085010123C1F88890D4F88821AB401A43D9
:1017D800022EC4F88821C1F80881E4D1D4F88C21FC
:1017E8001343C4F88C31DEE703F5A674C3F8484107
:1017F800D5E7DAF80000FFF7BFFF4FF0FF30DCE76E
:101808003804002050180008F8B500BFF8BC08BC20
:101818009E467047F8B500BFF8BC08BC9E467047A6
:10182800526F626F4D61737465720D0A000000009B
:101838000000000000000000010203040607080978
:0C1848000000000001020304100000205A
:08185400A4E9FF7F0100000080
:08185C0031170008AD0100087E
:0418640089010008EE
:101868000024F40001000000100000000000000047
:1018780000000000FC02002064030020CC030020CC
:101888000000000000000000000000000000000050
:101898000000000000000000000000000000000040
:1018A8000000000000000000000000000000000030
:1018B8000000000000000000000000000000000020
:1018C8000000000000000000000000000000000010
:1018D8000000000000000000000000000000000000
:1018E80000000000000000000000000000000000F0
:1018F80000000000000000000000000000000000E0
:1019080000000000000000000000000000000000CF
:1019180000000000000000000100000000000000BE
:101928000E33CDAB34126DE6ECDE05000B00000083
:10193800000000000000000000000000000000009F
:10194800000000000000000000000000000000008F
:10195800000000000000000000000000000000007F
:10196800000000000000000000000000000000006F
:0C1C98000000000000000000E404002038
:0400000508000931B5
:00000001FF
