:020000040800F2
:100000000000022045100008550F0008570F000897
:10001000590F00085B0F00085D0F0008000000008A
:100020000000000000000000000000005F0F00085A
:10003000610F000800000000630F0008650F000852
:1000400095100008951000089510000895100008FC
:1000500095100008951000089510000895100008EC
:1000600095100008951000089510000895100008DC
:1000700095100008951000089510000895100008CC
:100080009510000895100008951000086D0F0008E5
:100090007D0F0008951000089510000895100008C5
:1000A000951000089510000895100008951000089C
:1000B000951000089510000895100008951000088C
:1000C000951000089510000895100008951000087C
:1000D000951000089510000895100008951000086C
:1000E000951000089510000895100008951000085C
:1000F000951000089510000895100008951000084C
:10010000951000089510000895100008951000083B
:10011000951000089510000895100008951000082B
:10012000951000089510000895100008951000081B
:10013000951000089510000895100008951000080B
:1001400095100008951000089510000895100008FB
:10015000951000089510000895100008E50B0008A0
:1001600095100008951000089510000895100008DB
:100170009510000895100008951000080000000078
:0801800095100008951000081D
:1001880010B5054C237833B9044B13B10448AFF3C9
:1001980000800123237010BD3C04002000000000F3
:1001A800582A000808B5034B1BB103490348AFF3AD
:1001B800008008BD0000000040040020582A000804
:1001C8004FF0FF0C1CEAD0521EBF1CEAD15392EA32
:1001D8000C0F93EA0C0F6FD01A4480EA010C40020E
:1001E80018BF5FEA41211ED04FF0006343EA501068
:1001F80043EA5111A0FB01310CF00040B1F5000FAA
:100208003EBF490041EAD3715B0040EA010062F158
:100218007F02FD2A1DD8B3F1004F40EBC25008BF42
:1002280020F00100704790F0000F0CF0004C08BF60
:1002380049024CEA502040EA51207F3AC2BFD2F12D
:10024800FF0340EAC250704740F400004FF000033B
:10025800013A5DDC12F1190FDCBF00F00040704775
:10026800C2F10002410021FA02F1C2F1200200FAB3
:1002780002FC5FEA310040F1000053EA4C0308BF7A
:1002880020EADC70704792F0000F00F0004C02BFCB
:10029800400010F4000F013AF9D040EA0C0093F046
:1002A800000F01F0004C02BF490011F4000F013BA0
:1002B800F9D041EA0C018FE70CEAD15392EA0C0F0E
:1002C80018BF93EA0C0F0AD030F0004C18BF31F079
:1002D800004CD8D180EA010000F00040704790F04F
:1002E800000F17BF90F0004F084691F0000F91F0F3
:1002F800004F14D092EA0C0F01D142020FD193EAB9
:100308000C0F03D14B0218BF084608D180EA010040
:1003180000F0004040F0FE4040F40000704740F01C
:10032800FE4040F44000704780F0004002E000BF0B
:1003380081F0004142001FBF5FEA410392EA030FC8
:100348007FEA226C7FEA236C6AD04FEA1262D2EB12
:100358001363C1BFD218414048404140B8BF5B4217
:10036800192B88BF704710F0004F40F4000020F0B0
:100378007F4018BF404211F0004F41F4000121F0C6
:100388007F4118BF494292EA030F3FD0A2F1010210
:1003980041FA03FC10EB0C00C3F1200301FA03F14E
:1003A80000F0004302D5494260EB4000B0F5000F71
:1003B80013D3B0F1807F06D340084FEA310102F130
:1003C8000102FE2A51D2B1F1004F40EBC25008BFE2
:1003D80020F0010040EA03007047490040EB0000AC
:1003E800013A28BFB0F5000FEDD2B0FA80FCACF1AD
:1003F800080CB2EB0C0200FA0CF0AABF00EBC250DA
:1004080052421843BCBFD0401843704792F0000FC7
:1004180081F4000106BF80F400000132013BB5E71A
:100428004FEA41037FEA226C18BF7FEA236C21D090
:1004380092EA030F04D092F0000F08BF08467047F5
:1004480090EA010F1CBF0020704712F07F4F04D1C3
:10045800400028BF40F00040704712F100723CBFD6
:1004680000F50000704700F0004343F0FE4040F400
:10047800000070477FEA226216BF08467FEA2363BE
:100488000146420206BF5FEA412390EA010F40F4A9
:10049800800070474FF0000304E000BF10F00043F5
:1004A80048BF40425FEA000C08BF704743F09643DC
:1004B80001464FF000001CE050EA010208BF7047F7
:1004C8004FF000030AE000BF50EA010208BF70477E
:1004D80011F0004302D5404261EB41015FEA010C93
:1004E80002BF84460146002043F0B64308BFA3F18B
:1004F8008053A3F50003BCFA8CF2083AA3EBC2536D
:1005080010DB01FA02FC634400FA02FCC2F120028B
:10051800BCF1004F20FA02F243EB020008BF20F0C2
:100528000100704702F1200201FA02FCC2F1200228
:1005380050EA4C0021FA02F243EB020008BF20EA1D
:10054800DC7070474FF0FF3C06E000BF4FF0010C35
:1005580002E000BF4FF0010C4DF804CD4FEA400215
:100568004FEA41037FEA226C18BF7FEA236C11D05F
:1005780001B052EA530C18BF90EA010F58BFB2EB12
:10058800030088BFC81738BF6FEAE17018BF40F092
:10059800010070477FEA226C02D15FEA402C05D146
:1005A8007FEA236CE4D15FEA412CE1D05DF8040BCB
:1005B800704700BF844608466146FFE70FB5FFF75E
:1005C800C9FF002848BF10F1000F0FBD4DF808ED16
:1005D800FFF7F4FF0CBF012000205DF808FB00BF07
:1005E8004DF808EDFFF7EAFF34BF012000205DF861
:1005F80008FB00BF4DF808EDFFF7E0FF94BF0120AE
:1006080000205DF808FB00BF4DF808EDFFF7D2FFAA
:1006180094BF012000205DF808FB00BF4DF808EDED
:10062800FFF7C8FF34BF012000205DF808FB00BFBA
:100638004FEA4002B2F1FE4F0FD34FF09E03B3EBE7
:1006480012620DD94FEA002343F0004310F0004F27
:1006580023FA02F018BF404270474FF0000070477D
:1006680012F1610F01D1420205D110F0004008BF1C
:100678006FF0004070474FF00000704753B94AB917
:10068800002908BF00281CBF4FF0FF314FF0FF3092
:1006980000F074B9ADF1080C6DE904CE00F006F86D
:1006A800DDF804E0DDE9022304B070472DE9F047E6
:1006B800089E0D4604468846002B4DD18A42944632
:1006C80068D9B2FA82F252B101FA02F3C2F12001FA
:1006D80020FA01F10CFA02FC41EA030894404FEABF
:1006E8001C45210CB8FBF5FE1FFA8CF705FB1E8391
:1006F80041EA03430EFB07F199420BD91CEB0303B4
:100708000EF1FF3080F01E81994240F21B81AEF15C
:10071800020E63445B1AA4B2B3FBF5F005FB103379
:1007280044EA034400FB07F7A7420AD91CEB040478
:1007380000F1FF3380F00881A74240F2058164444C
:100748000238E41B40EA0E4000211EB1D4400023C9
:10075800C6E90043BDE8F0878B4208D9002E00F0B7
:10076800EE800021C6E900050846BDE8F087B3FA27
:1007780083F100294AD1AB4202D3824200F2F980C8
:10078800841A65EB030301209846002EE2D0C6E9DF
:100798000048DFE702B9FFDEB2FA82F2002A40F031
:1007A8009180A1EB0C054FEA1C471FFA8CFE012132
:1007B800B5FBF7F307FB1350250C45EA00450EFB84
:1007C80003F0A84208D91CEB050503F1FF3802D253
:1007D800A84200F2CB8043462D1AA4B2B5FBF7F02D
:1007E80007FB105544EA05440EFB00FEA64508D950
:1007F8001CEB040400F1FF3502D2A64500F2BB80D1
:100808002846A4EB0E0440EA03409EE7C1F1200706
:100818008B4022FA07FC4CEA030C20FA07F405FA8D
:1008280001F31C43FD404FEA1C4900FA01F3B5FBF4
:10083800F9F8200C1FFA8CFE09FB185540EA05450B
:1008480008FB0EF0A84202FA01F20BD91CEB0505D1
:1008580008F1FF3A80F08880A84240F28580A8F12C
:10086800020865442D1AA4B2B5FBF9F009FB10552E
:1008780044EA054500FB0EFEAE4508D91CEB05050C
:1008880000F1FF346CD2AE456AD90238654440EABB
:100898000840A0FB0294A5EB0E05A542C846A64653
:1008A80056D353D05EB1B3EB080265EB0E0505FADB
:1008B80007F722FA01F3CD401F43C6E9007500216E
:1008C800BDE8F087C2F1200320FA03F10CFA02FC1C
:1008D80025FA03F395400D434FEA1C471FFA8CFE97
:1008E800B3FBF7F107FB11302B0C43EA004301FB84
:1008F8000EF0984204FA02F408D91CEB030301F144
:10090800FF382FD298422DD9023963441B1AADB251
:10091800B3FBF7F007FB103345EA034500FB0EF382
:10092800AB4208D91CEB050500F1FF3816D2AB42E3
:1009380014D902386544ED1A40EA014138E73146D6
:10094800304607E78646E5E61846FAE64B45A9D25B
:10095800B9EB020864EB0C0E0138A3E74046EAE75E
:10096800204694E74146D1E7D0467BE7023B654401
:1009780032E7084609E76444023842E7704700BF97
:1009880008B50D480D4B03600323436000238360C3
:10099800C3604FF4102202614FF4001242610376E3
:1009A80043768376C3760377437700F02FFD00B94B
:1009B80008BD00F03BF9FBE75C0400200064004040
:1009C80008B50D480D4B0360032343600023836083
:1009D800C3604FF4102202614FF4001242610376A3
:1009E80043768376C3760377437700F00FFD00B92B
:1009F80008BD00F01BF9FBE78404002000680040F4
:100A080010B58AB0002305930693079308930993BA
:100A180003683D4A934204D03C4A93423CD00AB012
:100A280010BD3B4A136801331360012B27D0002403
:100A38000194384B1A6B42F008021A631B6B03F0DF
:100A480008030193019B032305930222069208934E
:100A58000923099305A9304801F022F922462146C5
:100A6800132001F0C3F8132001F0F8F822462146BC
:100A7800142001F0BBF8142001F0F0F8CFE70023B0
:100A88000093244B1A6C42F000721A641B6C03F03A
:100A980000730093009BCAE7002302931D4B1A6C56
:100AA80042F080621A641B6C03F080630293029B1D
:100AB800174A136801331360012B18D000230493DD
:100AC800144B1A6B42F002021A631B6B03F0020309
:100AD8000493049B6023059302230693032308933E
:100AE8000923099305A90D4801F0DAF897E70023CF
:100AF8000393084B1A6C42F000721A641B6C03F0E3
:100B080000730393039BD9E700640040006800402A
:100B18005804002000380240000C02400004024043
:100B280030B58DB000240794089409940A940B9466
:100B38000194284B1A6B42F002021A631A6B02F0F6
:100B480002020192019A02941A6B42F040021A635F
:100B58001A6B02F040020292029A03941A6B42F056
:100B680001021A631A6B02F001020392039A0494B9
:100B78001A6B42F008021A631A6B02F00802049218
:100B8800049A05941A6B42F004021A631A6B02F075
:100B980004020592059A06941A6B42F080021A63C1
:100BA8001B6B03F080030693069B0B4D22464FF404
:100BB800E051284601F066F94FF4E053079301230A
:100BC800089309940A9407A9284601F069F80DB01A
:100BD80030BD00BF00380240001C024000B583B0A1
:100BE800104B1B681A6812F0200F06D11A6812F011
:100BF800100F0CD103B05DF804FB5B68DBB28DF815
:100C080007304FF40061084801F042F9F2E75B68E9
:100C1800DBB28DF8073000224FF40061024801F082
:100C280031F9E7E7C0040020001C024072B6FEE775
:100C380000B595B03022002108A801F0F9FD002385
:100C4800039304930593069307930193204A116C29
:100C580041F080511164126C02F080520192019AA5
:100C680002931C4B1A6842F480421A601B6803F412
:100C780080430293029B012308934FF48033099326
:100C880002230E934FF480020F9206221092A8229C
:100C9800119212930423139308A801F003F998B949
:100CA8000F23039302230493002305934FF4A053C7
:100CB80006934FF480530793052103A801F040FBE6
:100CC80020B915B05DF804FBFFF7B0FFFFF7AEFFE2
:100CD8000038024000700040F0B595B000F056FBB7
:100CE800FFF7A6FFFFF71CFFFFF74AFEFFF768FEB6
:100CF80000F04AF900224FF400617A4801F0C2F886
:100D0800794B1B68DA6842F02002DA60DA6842F050
:100D18001002DA6000F042FA00251BE06423734CED
:100D280003FB0544204600F0FDFAA66D4FF07E5304
:100D380006936F4B05936F4B0493002103914FF477
:100D48004872029201910093C82342F21072204621
:100D5800B0470135032DE1DD002000F015FA664C9F
:100D68002060012000F010FA6060022000F00CFA08
:100D7800A060032000F008FAE0605C4C5F4B636001
:100D88000023A366C4F8CC305B4DAB681888FFF726
:100D980081FBC4F83001266E2B68B3F90200FFF717
:100DA8007DFB01462046B047D4F8C4602B68B3F9F0
:100DB8000200FFF773FB014604F16400B047D4F862
:100DC8002861AB681888FFF765FB014604F1C80085
:100DD800B047D4F88C61EB681888FFF75BFB0146D5
:100DE80004F59670B047266BD4F89470D4F85C017B
:100DF800FFF71EFC05B23846FFF71AFC04B230466E
:100E0800FFF716FC2B460022214600B200F092F9AB
:100E1800022000F0E7FA00F0DFFA394B1B68C01A2D
:100E28006428AAD9314BD3F85C01FFF701FC0446CA
:100E3800314D6B680A2208A9B3F9020001F0E2FCFF
:100E4800AB680A220BA9188801F0DCFCEB680A22BF
:100E58000EA9188801F0D6FC0A2211A9204601F033
:100E6800D1FC214C032307222649204601F039FCF6
:100E780003230C220BA9204601F033FC224D032347
:100E880002222946204601F02CFC032307221F4991
:100E9800204601F026FC03230C220EA9204601F06F
:100EA80020FC032302222946204601F01AFC0323D2
:100EB8000A221749204601F014FC03230C2211A929
:100EC800204601F00EFC032302222946204601F0A9
:100ED80008FC012000F086FA00F07EFA084B186042
:100EE8004BE700BF001C0240C0040020740500202E
:100EF8000000A04000002041B004002000803B45D5
:100F0800AC040020702A0008782A00087C2A00080F
:100F1800842A000882B0002100910B4B5A6C42F4DD
:100F280080425A645A6C02F480420092009A0191FD
:100F38001A6C42F080521A641B6C03F080530193C0
:100F4800019B02B0704700BF00380240FEE7FEE791
:100F5800FEE7FEE7FEE770477047704708B500F008
:100F68002FFA08BD08B5024800F009FD08BD00BF0A
:100F78005C04002008B5024800F001FD08BD00BF70
:100F88005C0400207047000008B50A480A4B03605B
:100F98004FF4E133436000238360C36003610C2294
:100FA80042618361C36101F06DFB00B908BDFFF7C1
:100FB8003DFEFBE7C00400200014014010B588B0D6
:100FC8000023039304930593069307930268194B30
:100FD8009A4201D008B010BD0024019403F5923361
:100FE8005A6C42F020025A645A6C02F020020192B4
:100FF800019A02941A6B42F040021A631B6B03F0C9
:1010080040030293029B4FF4844303930223049307
:10101800032306930823079303A9074800F040FE1B
:1010280022462146472000F0E1FD472000F016FE49
:10103800D0E700BF0014014000180240DFF834D0A8
:101048000D480E490E4A002302E0D458C450043318
:10105800C4188C42F9D30B4A0B4C002301E01360EF
:101068000432A242FBD3FFF78DFF01F0A7FBFFF785
:1010780033FE704700000220000000203C040020DE
:10108800E82A00083C0400200C070020FEE70000C6
:1010980010B58AB0044600F09FF9224B1B68C01AAD
:1010A800B0F5FA7F33D801AB03AA0021204600F03F
:1010B8009DFB039BA3F20122062A26D8013BDBB243
:1010C800194A1370194903EB830201EB420031F905
:1010D800124004819DF804C09DF8054044EA0C24A0
:1010E80021F812409DF80620120212B29DF807401E
:1010F800224342809DF80820120212B29DF809404E
:10110800224382809DF80A2082710AB010BD4FF4F4
:101118000061074800F0BCFE00F05EF9014B186062
:10112800C1E700BF04050020280500202C05002089
:10113800001C024010B582B08E4694460F494FF409
:1011480000720A6000228A60CA6008220A610C4A9A
:101158000412147050704FEA2E20907082F803E049
:101168004FEA2C20107182F805C018129071D371C3
:1011780001AB044800F0BCFA02B010BD1005002015
:10118800080500205C04002000F0030000EB80004C
:10119800014B03EB400070472C05002010B58AB0C6
:1011A8000122089200230693079200930193029369
:1011B8000393059304930E4C6946204600F0CCF93E
:1011C800204600F067FA0221204600F0BAFB0E2301
:1011D80009930593074C6946204600F0BDF920465F
:1011E80000F058FA0221204600F0ABFB0AB010BD0F
:1011F8005C0400208404002070B5044615461E4691
:101208000170BDF81400FFF745F96064049B23647E
:101218003046FFF73FF9E0632846FFF73BF9A06344
:10122800BDF91800FFF73AF9A064BDF91C00FFF7F3
:1012380035F96060089BE360099B23610A9B636141
:101248000023236370BDC1600261436170472DE9CB
:10125800F84304460D46C36C036500F0BDF8E0642E
:10126800236DC01A84F85400A561E7692762236BCF
:10127800636329466068FFF75BF80546E061002173
:10128800FFF7CCF9002849D02946206CFFF7A8F9C8
:10129800002840D0E1682846FEF792FF8046606249
:1012A80021692846FEF78CFFA16AFFF743F8064636
:1012B800A062D4F8149039462846FFF739F8014659
:1012C8004846FEF77DFF0746E062E56B2946304653
:1012D800FFF7A4F900B1A56205F100452946A06A07
:1012E800FFF77EF900B1A562A16A4046FFF722F830
:1012F80001463846FFF71EF82063A56B2946FFF71D
:101308008DF900B1256305F100452946206BFFF7EB
:1013180067F900B12563206BBDE8F88305F100414A
:10132800B3E70000034B8365034BC365034B0366B8
:10133800704700BF011200084F120008571200083A
:1013480010B504460E4B18784FF47A73B3FBF0F3DC
:101358000C4A1068B0FBF3F000F08EFC68B90F2C53
:1013680001D901200AE0002221464FF0FF3000F0A9
:101378003DFC054B1C60002000E0012010BD00BFB3
:1013880004000020000000200800002008B50B4BD6
:101398001A6842F400721A601A6842F480621A608D
:1013A8001A6842F480721A60032000F00DFC0F20C6
:1013B800FFF7C6FFFFF7AEFD002008BD003C024066
:1013C800034A1168034B1B780B441360704700BF36
:1013D8000407002004000020014B1868704700BF74
:1013E8000407002038B50446FFF7F6FF0546B4F1B8
:1013F800FF3F02D0044B1B781C44FFF7EDFF401B56
:10140800A042FAD338BD00BF04000020002800F035
:10141800A18038B5044690F82030D3B1226813680B
:1014280043F001031360FFF7D7FF054623685A68A6
:1014380012F0010F10D1FFF7CFFF401B0A28F5D992
:10144800636A43F400336362052384F82030012083
:1014580038BDFFF7D5FAE1E71A6822F002021A60F0
:10146800FFF7BAFF054623685A6812F0020F0DD03D
:10147800FFF7B2FF401B0A28F5D9636A43F400332B
:101488006362052384F820300120E1E7227E012AE7
:101498003DD01A6822F080021A60637E012B3BD08F
:1014A8002268136823F040031360A37E012B39D010
:1014B8002268136823F020031360E37E012B37D0E2
:1014C8002268136843F010031360237F012B35D083
:1014D8002268136823F008031360637F012B33D05D
:1014E8002268136823F004031360A368E2681343B7
:1014F80022691343626913436268013A21681343FE
:10150800CB6100206062012384F82030A0E71A68CC
:1015180042F080021A60C0E72268136843F0400373
:101528001360C2E72268136843F020031360C4E71E
:101538002268136823F010031360C6E72268136853
:1015480043F008031360C8E72268136843F00403F4
:101558001360CAE70120704790F82030013BDBB2E6
:10156800012B05D9436A43F4802343620120704765
:1015780010B5474BD3F8002242F00102C3F800220D
:10158800D3F8002222F47C52C3F80022D3F80022B8
:10159800486A42EA0022C3F800224A6902F01F02A0
:1015A800012000FA02F2D3F81C026FEA020C20EACA
:1015B8000200C3F81C02CB69CBB9354BD3F80C0237
:1015C8000CEA0000C3F80C028C884869D1F80CE0DA
:1015D80044EA0E44483043F830408C68088840EAB2
:1015E80004404C6904F1480E03EBCE035860CB6904
:1015F800012B1ED08B69002B35D12548D0F8043239
:101608000CEA0303C0F804320B699BBB2048D0F8EE
:1016180014320CEA0303C0F814320B6A012B30D0E1
:101628001B4AD2F8003223F00103C2F8003200202E
:1016380010BD174BD3F80C021043C3F80C028C886A
:101648004869D1F800E044EA0E44483043F8304095
:1016580088894C69D1F808E040EA0E40483403EB29
:10166800C4035860C6E70A48D0F804321343C0F8E8
:101678000432C9E70648D0F814321343C0F81432CC
:10168800CBE70349D1F81C321A43C1F81C22C7E73B
:101698000064004070B5044690F82050EDB2012D6A
:1016A80006D0436A43F4002343620125284670BDEF
:1016B800022380F820300268136823F001031360C6
:1016C800FFF78AFE064623685B6813F0010F0CD00B
:1016D800FFF782FE831B0A2BF5D9636A43F40033B4
:1016E8006362052384F82030E0E700256562DDE7C2
:1016F80030B590F820C00468A4680CF1FF3C5FFA8C
:101708008CFCBCF1010F6BD814F0E05F62D0C4F31D
:10171800016CBCF1020F05D9436A43F4000343622C
:10172800012062E0012404FA0CF41C608B68002B91
:101738003DD10D68CB68046843EA45550CF11803A0
:101748001B01E55003680C690CF1180E03EB0E132E
:101758005C600B7D012B35D0D17993791B0443EA6A
:101768000163517943EA012314790168234301EBAA
:101778000C11C1F88C31D17893781B0443EA0163CA
:10178800517843EA0123117802680B4302EB0C12EB
:10179800C2F8883102680CF1180C4FEA0C1C52F898
:1017A8000C3043F0010342F80C3000201DE04C6877
:1017B80043EAC403CC6823430CF1180424010568E8
:1017C8002B51BFE7036803EB0E13596841F480718E
:1017D8005960C1E7436A43F400134362012004E0FF
:1017E800436A43F480234362012030BD90F820C04F
:1017F8000CF1FF3C5FFA8CFCBCF1010F00F29B80FE
:1018080010B451B90468E46814F0030F10D1436AA6
:1018180043F40013436201207BE00468246914F058
:10182800030F05D1436A43F400134362012070E0BB
:1018380001F11B042401D0F800C05CF8044004F056
:1018480004049460002C66D101F11B042401D0F833
:1018580000C05CF80440640D1460046801F11B0CBE
:101868004FEA0C1C54F80C4004F00204D4600468DD
:101878006444646804F00F04146104686444646890
:10188800C4F307249461046864446468240C5461B4
:10189800026802EB0112D2F8B8211A70026802EB52
:1018A8000112D2F8B821C2F307225A70026802EB7B
:1018B8000112D2F8B821C2F307429A70026802EB0B
:1018C8000112D2F8B821120EDA70026802EB011286
:1018D800D2F8BC211A71026802EB0112D2F8BC21BD
:1018E800C2F307225A71026802EB0112D2F8BC2136
:1018F800C2F307429A71026802EB0112D2F8BC21C6
:10190800120EDA7189B90268D36843F02003D360F4
:10191800002010BC704701F11B042401D0F800C05E
:101928005CF80440E408546097E70268136943F0E0
:1019380020031361ECE7436A43F4802343620120E8
:10194800704790F82030013BDBB2012B05D9436A80
:1019580043F48023436201207047026853691943A6
:101968005161002070477047704770477047704753
:1019780070477047704770477047704770472DE948
:10198800F84F054603685C69D3F804809F68D3F86C
:101998000CB0D3F810A0D3F8189014F001063BD07F
:1019A80017F0010616D001229A6017F0020F08D12D
:1019B80017F0040F0CD117F0080606D04FF4805624
:1019C80008E0FFF7D0FF002604E0FFF7CFFF01E0B3
:1019D8004FF4006617F4807F0DD02B684FF48072A7
:1019E8009A6017F4007F40F0868017F4806F00F04B
:1019F800868046F4005617F4803F0DD02B684FF4CC
:101A080080329A6017F4003F40F0838017F4802FEB
:101A180000F0838046F4004614F0080F07D01BF04E
:101A2800100F04D046F400762B681022DA6014F008
:101A3800040F02D01BF0080F79D114F0020F04D064
:101A48002B68DB6813F0030F78D114F0400F07D030
:101A58001AF0100F04D046F480662B6810221A6121
:101A680014F0200F02D01AF0080F6BD114F0100FE9
:101A780004D02B681B6913F0030F6AD114F4003FDC
:101A880002D018F0100F68D114F4803F02D018F07B
:101A9800080F69D114F4004F7AD018F0040F74D0ED
:101AA80014F4807F04D019F0010F01D046F001062C
:101AB80014F4007F04D019F0020F01D046F002069A
:101AC80014F4806F04D019F0040F01D046F0040616
:101AD80014F4006F59D019F0700956D0B9F1400FBD
:101AE80065D058D8B9F1200F5ED0B9F1300F42D186
:101AF80046F0200644E02846FFF736FF7BE717F458
:101B0800006F02D046F4804675E72846FFF72FFF9E
:101B180071E72846FFF729FF7EE717F4002F02D068
:101B280046F4803678E72846FFF722FF74E72B68EB
:101B38000822DA602846FFF71CFF7EE72846FFF7F1
:101B4800A7FA82E72B6808221A612846FFF713FFD5
:101B58008CE72846FFF70EFF90E72B6810225A60A3
:101B68002846FFF709FF8FE72B6808225A602846A6
:101B7800FFF703FF8EE7B9F1100F01D146F0080611
:101B88002A68936923F0700393612B6804225A60D2
:101B98009EB9BDE8F88FB9F1500F0BD0B9F1600FBD
:101BA800EED146F48076EBE746F01006E8E746F01B
:101BB8004006E5E746F08006E2E76B6A1E436E6280
:101BC8002846FFF7DBFEE4E7074AD36823F4E0631F
:101BD8001B041B0C000200F4E060034343F0BF63E6
:101BE80043F40033D360704700ED00E000B5194BB3
:101BF800DB68C3F30223C3F1070CBCF1040F28BF51
:101C08004FF0040C03F1040EBEF1060F18D9033B84
:101C18004FF0FF3E0EFA0CFC21EA0C0199400EFA37
:101C280003F322EA0303194300280BDB0901C9B2B5
:101C380000F1604000F5614080F800135DF804FB96
:101C48000023E5E700F00F000901C9B2024B19545F
:101C5800F4E700BF00ED00E014ED00E0002807DB2A
:101C680000F01F02400901239340024A42F8203045
:101C7800704700BF00E100E00138B0F1807F0BD26F
:101C88004FF0E0235861054AF02182F82310002024
:101C9800986107221A6170470120704700ED00E043
:101CA80000230F2B00F2E48070B582B060E08568F5
:101CB8005E000324B44025EA0405CC68B4402C43F4
:101CC8008460456825EA02054C68C4F300129A400E
:101CD8002A4342605AE0DC08083450F8246003F0D4
:101CE800070295000F22AA4026EA020E0A69AA40B6
:101CF80042EA0E0240F824205CE0072200E00022BD
:101D080002FA0EF22A4302345A4D45F824205A4A60
:101D180094686FEA0C0224EA0C054E6816F4801FDA
:101D280001D04CEA0405544CA560E46802EA0405B5
:101D38004E6816F4001F01D04CEA04054E4CE560CD
:101D4800646802EA04054E6816F4003F01D04CEAC4
:101D58000405494C6560246822404D6815F4803FAD
:101D680001D04CEA0402444C226001330F2B7DD889
:101D780001229A400C6804EA020C32EA0404F4D105
:101D88004C6804F00304013C012C90D94A6802F025
:101D98000302032A09D0C4685D000322AA4024EA8A
:101DA80002048A68AA402243C2604A6802F0030219
:101DB800022A90D004684FEA430E032202FA0EF278
:101DC80024EA02044A6802F0030202FA0EF22243ED
:101DD80002604A6812F4403FC7D000220192274AA5
:101DE800546C44F480445464526C02F4804201926E
:101DF800019A9C08A51C1F4A52F8255003F00302BB
:101E08004FEA820E0F2202FA0EF225EA02051C4A58
:101E180090423FF474AF02F5806290421AD002F506
:101E28008062904218D002F58062904216D002F586
:101E38008062904214D002F58062904212D002F57E
:101E48008062904210D002F5806290423FF455AF14
:101E5800082255E7012253E7022251E703224FE700
:101E680004224DE705224BE7062249E702B070BD80
:101E7800704700BF00380140003C01400038024074
:101E8800000002400AB1816170470904816170470E
:101E9800436901EA030221EA030141EA024181613F
:101EA80070470000002800F0E08170B582B0044659
:101EB800036813F0010F3BD09F4B9B6803F00C03A2
:101EC800042B2CD09C4B9B6803F00C03082B21D0CF
:101ED8006368B3F5803F4FD0B3F5A02F52D0964B2F
:101EE8001A6822F480321A601A6822F480221A6072
:101EF8006368002B50D0FFF76FFA05468E4B1B68BE
:101F080013F4003F14D1FFF767FA401B6428F5D992
:101F18000320B1E1884B5B6813F4800FD8D0864B5F
:101F28001B6813F4003F03D06368002B00F09F8107
:101F3800236813F0020F54D07F4B9B6813F00C0FEB
:101F48003ED07D4B9B6803F00C03082B33D0E3682D
:101F5800002B68D0794B01221A60FFF73DFA05463D
:101F6800754B1B6813F0020F54D1FFF735FA401B6D
:101F78000228F5D903207FE16F4A136843F48033C0
:101F88001360B5E76C4B1A6842F480221A601A682D
:101F980042F480321A60ABE7FFF71EFA0546664B3B
:101FA8001B6813F4003FC3D0FFF716FA401B6428E0
:101FB800F5D9032060E1604B5B6813F4800FC6D14C
:101FC8005D4B1B6813F0020F03D0E368012B40F050
:101FD8005081594A136823F0F803216943EAC10381
:101FE8001360236813F0080F42D063696BB3534B37
:101FF8000122C3F8802EFFF7EFF905464E4B5B6FC1
:1020080013F0020F34D1FFF7E7F9401B0228F5D986
:10201800032031E1484A136823F0F803216943EAB1
:10202800C1031360DDE7454B00221A60FFF7D4F9BE
:102038000546414B1B6813F0020FD2D0FFF7CCF9CD
:10204800401B0228F5D9032016E13C4B0022C3F8B7
:10205800802EFFF7C1F90546374B5B6F13F0020F6F
:1020680006D0FFF7B9F9401B0228F5D9032003E190
:10207800236813F0040F77D02F4B1B6C13F0805F8D
:1020880033D1002301932C4B1A6C42F080521A640E
:102098001B6C03F080530193019B0125284B1B689F
:1020A80013F4807F23D0A368012B34D0052B38D0BC
:1020B800214B1A6F22F001021A671A6F22F00402EC
:1020C8001A67A368002B3DD0FFF786F906461A4B1E
:1020D8001B6F13F0020F46D1FFF77EF9801B41F208
:1020E80088339842F3D90320C6E00025D6E7144A7E
:1020F800136843F480731360FFF76EF90646104BBC
:102108001B6813F4807FCED1FFF766F9801B022885
:10211800F5D90320B0E0084A136F43F001031367B1
:10212800CFE7054B1A6F42F004021A671A6F42F0A4
:1021380001021A67C5E700BF0038024000004742A5
:1021480000700040FFF748F90646524B1B6F13F02A
:10215800020F08D0FFF740F9801B41F288339842FC
:10216800F3D9032088E0EDB9A369002B00F0838040
:10217800484A926802F00C02082A51D0022B17D064
:10218800454B00221A66FFF727F90446414B1B68A6
:1021980013F0007F42D0FFF71FF9001B0228F5D982
:1021A800032069E03B4A136C23F080531364DBE798
:1021B800394B00221A66FFF70FF90546354B1B68A5
:1021C80013F0007F06D0FFF707F9401B0228F5D966
:1021D800032051E0E369226A1343626A43EA8213E7
:1021E800A26A5208013A43EA0243E26A43EA0263F6
:1021F800284A5360284B01221A66FFF7EDF8044677
:10220800244B1B6813F0007F06D1FFF7E5F8001B8D
:102218000228F5D903202FE000202DE000202BE034
:10222800012B2BD01B4B5B6803F48001E2699142C0
:1022380026D103F03F02216A8A4223D1616A47F618
:10224800C0721A40B2EB811F1ED103F44031A26A5A
:102258005208013AB1EB024F18D103F07063E26AF9
:10226800B3EB026F14D1002006E001207047012073
:1022780002E0012000E0002002B070BD0120FBE771
:102288000120F9E70120F7E70120F5E70120F3E74E
:102298000120F1E7003802400000474208B5254B0D
:1022A8009B6803F00C03042B3FD0082B3FD1214B34
:1022B8005A6802F03F025B6813F4800F12D01D4B7E
:1022C8005968C1F388111C480023A1FB0001FEF7DF
:1022D800D5F9184B5B68C3F3014301335B00B0FBCE
:1022E800F3F025E0134B5968C1F3881C4FEA4C11F1
:1022F800B1EB0C006EEB0E0E4FEA8E1343EA9063BF
:102308008101091A63EB0E03DB0043EA5173C9002C
:1023180011EB0C0C43F10003990200234FEA8C20C7
:1023280041EA9C51FEF7AAF9D3E7034800E00348C5
:1023380008BD00BF00380240001BB7000024F400AD
:10234800002800F09B8070B50D4604464F4B1B6873
:1023580003F007038B4208D2CBB24C4A13701368C0
:1023680003F007038B4240F08B80236813F0020FC1
:1023780017D013F0040F04D0454A936843F4E05390
:102388009360236813F0080F04D0414A936843F41C
:10239800604393603E4A936823F0F003A1680B43BF
:1023A8009360236813F0010F32D06368012B21D0AA
:1023B8009A1E012A25D9364A126812F0020F61D0F6
:1023C80033498A6822F0030213438B60FFF704F84D
:1023D80006462F4B9B6803F00C036268B3EB820F31
:1023E80016D0FEF7F9FF801B41F288339842F0D9E6
:1023F800032042E0264A126812F4003FE0D101208F
:102408003BE0234A126812F0007FD9D1012034E062
:102418001E4B1B6803F00703AB4207D9EAB21B4BFC
:102428001A701B6803F00703AB422DD1236813F021
:10243800040F06D0164A936823F4E053E1680B436F
:102448009360236813F0080F07D0114A936823F4A8
:102458006043216943EAC1039360FFF71FFF0C4BF8
:102468009B68C3F303130B4AD35CD8400A4B18602C
:102478000A4B1868FEF764FF002070BD0120704702
:102488000120FAE70120F8E70120F6E7003C0240C6
:1024980000380240902A00080000002008000020B0
:1024A800014B1868704700BF0000002008B5FFF70F
:1024B800F7FF044B9B68C3F38223034AD35CD840DD
:1024C80008BD00BF00380240A02A000808B5FFF781
:1024D800E7FF044B9B68C3F34233034AD35CD840FD
:1024E80008BD00BF00380240A02A000838B50446DD
:1024F8000268136923F44053C1680B43136183686E
:102508000269134342691343C2691A430168CB68DD
:1025180023F4164323F00C031343CB60026853697A
:1025280023F4407381690B4353610368314A934232
:1025380006D002F58062934202D0FFF7B7FF01E0B0
:10254800FFF7C4FFE369B3F5004F29D00021031852
:1025580049411B1841F10001C90041EA5371DB00F0
:10256800181863684FEA83024FEA937341F1000138
:10257800FEF784F8204DA5FB00325109642303FBC4
:1025880011031B013233A5FB03235B0903F0F0029F
:1025980002EB011203F00F03216813448B6038BD6E
:1025A8000023021843EB0301121841F10001C9008E
:1025B80041EA5271D200101841F100016268921884
:1025C8005B41FEF75BF80C4DA5FB00325109642313
:1025D80003FB1103DB003233A5FB03235B095A001D
:1025E80002F4F87202EB011203F0070321681344A6
:1025F8008B60D4E7001001401F85EB512DE9F843AB
:1026080005460F4616469946DDF820802C68246852
:1026180037EA04030CBF4FF0010C4FF0000CB4452F
:102628002DD1B8F1FF3FF1D0B8F1000F05D0FEF77A
:10263800D3FEA0EB09004045E8D92A6802F10C0353
:1026480053E8003F23F4D0730C3242E800310029EC
:10265800F3D12A6802F1140353E8003F23F0010381
:10266800143242E800310029F3D1202385F83D30A7
:1026780085F83E30002385F83C30032000E0002038
:10268800BDE8F88358B310B5044690F83D300BB355
:10269800242384F83D302268D36823F40053D360A0
:1026A8002046FFF723FF2268136923F49043136140
:1026B8002268536923F02A0353612268D36843F4DC
:1026C8000053D36000202064202384F83D3084F830
:1026D8003E3010BD80F83C30FEF770FCD8E7012092
:1026E80070472DE9F04182B01E4690F83D30DBB2CC
:1026F800202B54D104460D469046002953D0002A79
:1027080053D090F83C30012B51D0012380F83C3055
:1027180000230364212380F83D30FEF75DFE074661
:10272800A4F82480A4F82680A368B3F5805F05D0B8
:102738004FF00008002384F83C3012E0236913B1FD
:102748004FF00008F6E7A8460025F3E738F8023B03
:102758002268C3F308035360E28C92B2013A92B242
:10276800E284E38C9BB273B100963B460022802141
:102778002046FFF743FFE0B9002DE7D015F8012BFD
:1027880023685A60E8E700963B460022402120462D
:10279800FFF734FF78B9202384F83D3000E00220A9
:1027A80002B0BDE8F0810120FAE70120F8E7022035
:1027B800F6E70320F4E70320F2E7000070B50D4EBA
:1027C8000D4D761BB61006D0002455F8043B013495
:1027D8009847A642F9D1094E094D761B00F038F901
:1027E800B61006D0002455F8043B01349847A64299
:1027F800F9D170BDDC2A0008DC2A0008E42A0008A8
:10280800DC2A0008931E222B10B50C460CD80A2A85
:1028180003D000F05FF8204610BD0028F9DA2D2318
:1028280001F8013B4042F4E70020087010BD00BFEA
:10283800830730B548D0541E002A3FD0CAB2034699
:1028480001E0013C3AD303F8012B9D07F9D1032C91
:102858002DD9CDB245EA05250F2C45EA054536D9CF
:10286800A4F1100222F00F0C03F1200EE6444FEA07
:10287800121C03F1100242E9045542E902551032D4
:102888007245F8D10CF1010214F00C0F03EB02129F
:1028980004F00F0C13D0ACF1040323F0030304334A
:1028A800134442F8045B9342FBD10CF003042CB1AF
:1028B800CAB21C4403F8012B9C42FBD130BD6446CC
:1028C8001346002CF4D1F9E703461446BFE71A462D
:1028D800A446E0E7F0B5254FA2F1020E16460546DC
:1028E8000C460FCF8BB0EC46ACE80F000FCFACE82E
:1028F8000F0097E803004CF8040BBEF1220F8CF888
:1029080000102ED804F1FF3E70464FF0000CB5FBC6
:10291800F6F206FB125328336B44614613F828CCB1
:1029280000F801CF2B469E4201F1010C1546EED965
:10293800002304F80C3089B1A44472461EF8010F34
:102948001CF8015D8EF800506FEA0E030232234432
:10295800121B0B449A428CF80000EEDB20460BB0A9
:10296800F0BD002020700BB0F0BD00BFAC2A0008FD
:10297800024B13B1024800F005B870470000000090
:1029880099290008002301461A46184600F01AB88B
:1029980038B5084B084D5B1B9C1007D0043B1D4401
:1029A800013C55F804399847002CF9D1BDE8384066
:1029B80000F054B8E82A0008E42A0008704700BF6D
:1029C800704700BF2DE9F047DFF87CA00646DAF82B
:1029D800000098460F469146FFF7F0FF1B4B1B6817
:1029E800D3F8484124B365681F2D26DC5EB96B1CFB
:1029F8000235DAF80000636044F82570FFF7E0FF5D
:102A08000020BDE8F08704EB85010123C1F8889018
:102A1800D4F88821AB401A43022EC4F88821C1F8A3
:102A28000881E4D1D4F88C211343C4F88C31DEE753
:102A380003F5A674C3F84841D5E7DAF80000FFF7B4
:102A4800BFFF4FF0FF30DCE738040020A82A000859
:102A5800F8B500BFF8BC08BC9E467047F8B500BF83
:082A6800F8BC08BC9E46704753
:102A70002832296563643A000D0A0000283329656D
:102A800063643A002833296F75747075743A0000D6
:102A9000000000000000000001020304060708090E
:102AA0000000000001020304100000203031323326
:102AB0003435363738396162636465666768696AD8
:102AC0006B6C6D6E6F707172737475767778797ADE
:042AD0000000000002
:082AD400E0DBFF7F01000000C0
:082ADC0079290008AD01000892
:042AE400890100085C
:102AE8000024F400010000001000000000000000B5
:102AF80000000000FC02002064030020CC0300203A
:102B080000000000000000000000000000000000BD
:102B180000000000000000000000000000000000AD
:102B2800000000000000000000000000000000009D
:102B3800000000000000000000000000000000008D
:102B4800000000000000000000000000000000007D
:102B5800000000000000000000000000000000006D
:102B6800000000000000000000000000000000005D
:102B7800000000000000000000000000000000004D
:102B8800000000000000000000000000000000003D
:102B9800000000000000000001000000000000002C
:102BA8000E33CDAB34126DE6ECDE05000B000000F1
:102BB800000000000000000000000000000000000D
:102BC80000000000000000000000000000000000FD
:102BD80000000000000000000000000000000000ED
:102BE80000000000000000000000000000000000DD
:0C2F18000000000000000000080700207E
:04000005080010459A
:00000001FF
