:020000040800F2
:1000000000000220390E0008FD0D0008FF0D000859
:10001000010E0008030E0008050E00080000000095
:10002000000000000000000000000000070E0008B3
:10003000090E0008000000000B0E00080D0E00085D
:10004000890E0008890E0008890E0008890E000834
:10005000890E0008890E0008890E0008890E000824
:10006000890E0008890E0008890E0008890E000814
:10007000890E0008890E0008890E0008890E000804
:10008000890E0008890E0008890E0008150E000868
:10009000250E0008890E0008890E0008890E000848
:1000A000890E0008890E0008890E0008890E0008D4
:1000B000890E0008890E0008890E0008890E0008C4
:1000C000890E0008890E0008890E0008890E0008B4
:1000D000890E0008890E0008890E0008890E0008A4
:1000E000890E0008890E0008890E0008890E000894
:1000F000890E0008890E0008890E0008890E000884
:10010000890E0008890E0008890E0008890E000873
:10011000890E0008890E0008890E0008890E000863
:10012000890E0008890E0008890E0008890E000853
:10013000890E0008890E0008890E0008890E000843
:10014000890E0008890E0008890E0008890E000833
:10015000890E0008890E0008890E0008890E000823
:10016000890E0008890E0008890E0008890E000813
:10017000890E0008890E0008890E000800000000A2
:08018000890E0008890E000839
:1001880010B5054C237833B9044B13B10448AFF3C9
:1001980000800123237010BD3C04002000000000F3
:1001A8003424000808B5034B1BB103490348AFF3D7
:1001B800008008BD0000000040040020342400082E
:1001C8004FF0FF0C1CEAD0521EBF1CEAD15392EA32
:1001D8000C0F93EA0C0F6FD01A4480EA010C40020E
:1001E80018BF5FEA41211ED04FF0006343EA501068
:1001F80043EA5111A0FB01310CF00040B1F5000FAA
:100208003EBF490041EAD3715B0040EA010062F158
:100218007F02FD2A1DD8B3F1004F40EBC25008BF42
:1002280020F00100704790F0000F0CF0004C08BF60
:1002380049024CEA502040EA51207F3AC2BFD2F12D
:10024800FF0340EAC250704740F400004FF000033B
:10025800013A5DDC12F1190FDCBF00F00040704775
:10026800C2F10002410021FA02F1C2F1200200FAB3
:1002780002FC5FEA310040F1000053EA4C0308BF7A
:1002880020EADC70704792F0000F00F0004C02BFCB
:10029800400010F4000F013AF9D040EA0C0093F046
:1002A800000F01F0004C02BF490011F4000F013BA0
:1002B800F9D041EA0C018FE70CEAD15392EA0C0F0E
:1002C80018BF93EA0C0F0AD030F0004C18BF31F079
:1002D800004CD8D180EA010000F00040704790F04F
:1002E800000F17BF90F0004F084691F0000F91F0F3
:1002F800004F14D092EA0C0F01D142020FD193EAB9
:100308000C0F03D14B0218BF084608D180EA010040
:1003180000F0004040F0FE4040F40000704740F01C
:10032800FE4040F44000704780F0004002E000BF0B
:1003380081F0004142001FBF5FEA410392EA030FC8
:100348007FEA226C7FEA236C6AD04FEA1262D2EB12
:100358001363C1BFD218414048404140B8BF5B4217
:10036800192B88BF704710F0004F40F4000020F0B0
:100378007F4018BF404211F0004F41F4000121F0C6
:100388007F4118BF494292EA030F3FD0A2F1010210
:1003980041FA03FC10EB0C00C3F1200301FA03F14E
:1003A80000F0004302D5494260EB4000B0F5000F71
:1003B80013D3B0F1807F06D340084FEA310102F130
:1003C8000102FE2A51D2B1F1004F40EBC25008BFE2
:1003D80020F0010040EA03007047490040EB0000AC
:1003E800013A28BFB0F5000FEDD2B0FA80FCACF1AD
:1003F800080CB2EB0C0200FA0CF0AABF00EBC250DA
:1004080052421843BCBFD0401843704792F0000FC7
:1004180081F4000106BF80F400000132013BB5E71A
:100428004FEA41037FEA226C18BF7FEA236C21D090
:1004380092EA030F04D092F0000F08BF08467047F5
:1004480090EA010F1CBF0020704712F07F4F04D1C3
:10045800400028BF40F00040704712F100723CBFD6
:1004680000F50000704700F0004343F0FE4040F400
:10047800000070477FEA226216BF08467FEA2363BE
:100488000146420206BF5FEA412390EA010F40F4A9
:10049800800070474FF0000304E000BF10F00043F5
:1004A80048BF40425FEA000C08BF704743F09643DC
:1004B80001464FF000001CE050EA010208BF7047F7
:1004C8004FF000030AE000BF50EA010208BF70477E
:1004D80011F0004302D5404261EB41015FEA010C93
:1004E80002BF84460146002043F0B64308BFA3F18B
:1004F8008053A3F50003BCFA8CF2083AA3EBC2536D
:1005080010DB01FA02FC634400FA02FCC2F120028B
:10051800BCF1004F20FA02F243EB020008BF20F0C2
:100528000100704702F1200201FA02FCC2F1200228
:1005380050EA4C0021FA02F243EB020008BF20EA1D
:10054800DC7070474FF0FF3C06E000BF4FF0010C35
:1005580002E000BF4FF0010C4DF804CD4FEA400215
:100568004FEA41037FEA226C18BF7FEA236C11D05F
:1005780001B052EA530C18BF90EA010F58BFB2EB12
:10058800030088BFC81738BF6FEAE17018BF40F092
:10059800010070477FEA226C02D15FEA402C05D146
:1005A8007FEA236CE4D15FEA412CE1D05DF8040BCB
:1005B800704700BF844608466146FFE70FB5FFF75E
:1005C800C9FF002848BF10F1000F0FBD4DF808ED16
:1005D800FFF7F4FF0CBF012000205DF808FB00BF07
:1005E8004DF808EDFFF7EAFF34BF012000205DF861
:1005F80008FB00BF4DF808EDFFF7E0FF94BF0120AE
:1006080000205DF808FB00BF4DF808EDFFF7D2FFAA
:1006180094BF012000205DF808FB00BF4DF808EDED
:10062800FFF7C8FF34BF012000205DF808FB00BFBA
:100638004FEA4002B2F1FE4F0FD34FF09E03B3EBE7
:1006480012620DD94FEA002343F0004310F0004F27
:1006580023FA02F018BF404270474FF0000070477D
:1006680012F1610F01D1420205D110F0004008BF1C
:100678006FF0004070474FF00000704753B94AB917
:10068800002908BF00281CBF4FF0FF314FF0FF3092
:1006980000F074B9ADF1080C6DE904CE00F006F86D
:1006A800DDF804E0DDE9022304B070472DE9F047E6
:1006B800089E0D4604468846002B4DD18A42944632
:1006C80068D9B2FA82F252B101FA02F3C2F12001FA
:1006D80020FA01F10CFA02FC41EA030894404FEABF
:1006E8001C45210CB8FBF5FE1FFA8CF705FB1E8391
:1006F80041EA03430EFB07F199420BD91CEB0303B4
:100708000EF1FF3080F01E81994240F21B81AEF15C
:10071800020E63445B1AA4B2B3FBF5F005FB103379
:1007280044EA034400FB07F7A7420AD91CEB040478
:1007380000F1FF3380F00881A74240F2058164444C
:100748000238E41B40EA0E4000211EB1D4400023C9
:10075800C6E90043BDE8F0878B4208D9002E00F0B7
:10076800EE800021C6E900050846BDE8F087B3FA27
:1007780083F100294AD1AB4202D3824200F2F980C8
:10078800841A65EB030301209846002EE2D0C6E9DF
:100798000048DFE702B9FFDEB2FA82F2002A40F031
:1007A8009180A1EB0C054FEA1C471FFA8CFE012132
:1007B800B5FBF7F307FB1350250C45EA00450EFB84
:1007C80003F0A84208D91CEB050503F1FF3802D253
:1007D800A84200F2CB8043462D1AA4B2B5FBF7F02D
:1007E80007FB105544EA05440EFB00FEA64508D950
:1007F8001CEB040400F1FF3502D2A64500F2BB80D1
:100808002846A4EB0E0440EA03409EE7C1F1200706
:100818008B4022FA07FC4CEA030C20FA07F405FA8D
:1008280001F31C43FD404FEA1C4900FA01F3B5FBF4
:10083800F9F8200C1FFA8CFE09FB185540EA05450B
:1008480008FB0EF0A84202FA01F20BD91CEB0505D1
:1008580008F1FF3A80F08880A84240F28580A8F12C
:10086800020865442D1AA4B2B5FBF9F009FB10552E
:1008780044EA054500FB0EFEAE4508D91CEB05050C
:1008880000F1FF346CD2AE456AD90238654440EABB
:100898000840A0FB0294A5EB0E05A542C846A64653
:1008A80056D353D05EB1B3EB080265EB0E0505FADB
:1008B80007F722FA01F3CD401F43C6E9007500216E
:1008C800BDE8F087C2F1200320FA03F10CFA02FC1C
:1008D80025FA03F395400D434FEA1C471FFA8CFE97
:1008E800B3FBF7F107FB11302B0C43EA004301FB84
:1008F8000EF0984204FA02F408D91CEB030301F144
:10090800FF382FD298422DD9023963441B1AADB251
:10091800B3FBF7F007FB103345EA034500FB0EF382
:10092800AB4208D91CEB050500F1FF3816D2AB42E3
:1009380014D902386544ED1A40EA014138E73146D6
:10094800304607E78646E5E61846FAE64B45A9D25B
:10095800B9EB020864EB0C0E0138A3E74046EAE75E
:10096800204694E74146D1E7D0467BE7023B654401
:1009780032E7084609E76444023842E7704700BF97
:1009880008B50D480D4B03600323436000238360C3
:10099800C3604FF4102202614FF4001242610376E3
:1009A80043768376C3760377437700F019FC00B962
:1009B80008BD00F009F9FBE75C0400200064004072
:1009C80008B50D480D4B0360032343600023836083
:1009D800C3604FF4102202614FF4001242610376A3
:1009E80043768376C3760377437700F0F9FB00B943
:1009F80008BD00F0E9F8FBE7840400200068004027
:100A080010B58AB0002305930693079308930993BA
:100A180003683D4A934204D03C4A93423CD00AB012
:100A280010BD3B4A136801331360012B27D0002403
:100A38000194384B1A6B42F008021A631B6B03F0DF
:100A480008030193019B032305930222069208934E
:100A58000923099305A9304801F00CF822462146DC
:100A6800132000F0ADFF132000F0E2FF22462146DC
:100A7800142000F0A5FF142000F0DAFFCFE70023D0
:100A88000093244B1A6C42F000721A641B6C03F03A
:100A980000730093009BCAE7002302931D4B1A6C56
:100AA80042F080621A641B6C03F080630293029B1D
:100AB800174A136801331360012B18D000230493DD
:100AC800144B1A6B42F002021A631B6B03F0020309
:100AD8000493049B6023059302230693032308933E
:100AE8000923099305A90D4800F0C4FF97E70023DF
:100AF8000393084B1A6C42F000721A641B6C03F0E3
:100B080000730393039BD9E700640040006800402A
:100B18005804002000380240000C02400004024043
:100B280030B58BB000240594069407940894099472
:100B38000094234B1A6B42F002021A631A6B02F0FC
:100B480002020092009A01941A6B42F001021A63A1
:100B58001A6B02F001020192019A02941A6B42F098
:100B680008021A631A6B02F008020292029A0394AE
:100B78001A6B42F004021A631A6B02F00402039221
:100B8800039A04941A6B42F080021A631B6B03F0F9
:100B980080030493049B0B4D22464FF4E0512846F2
:100BA80001F05AF84FF4E053059301230693079494
:100BB800089405A9284600F05DFF0BB030BD00BFC2
:100BC80000380240001C024072B6FEE700B595B03E
:100BD8003022002108A801F067FB00230393049347
:100BE8000593069307930193204A116C41F08051B5
:100BF8001164126C02F080520192019A02931C4B0C
:100C08001A6842F480421A601B6803F48043029316
:100C1800029B012308934FF48033099302230E9318
:100C28004FF480020F9206221092A822119212937A
:100C38000423139308A801F015F898B90F23039318
:100C480002230493002305934FF4A05306934FF413
:100C580080530793052103A801F052FA20B915B073
:100C68005DF804FBFFF7B0FFFFF7AEFF0038024066
:100C7800007000402DE9F04188B000F071FAFFF7EC
:100C8800A5FFFFF74DFFFFF77BFEFFF799FE00F08A
:100C98006FF9002520E06423424C03FB05442046FD
:100CA80000F02AFAA66D4FF0804306934FF07E536A
:100CB80005934FF082430493002303934FF4FA52B1
:100CC80002920193384B009341F288334FF48042EB
:100CD80001212046B0470135032DDCDD002000F05E
:100CE8003DF9324C2060012000F038F960600220A4
:100CF80000F034F9A060032000F030F9E060294CDE
:100D08002B4BA3662B4BC4F8CC302B4BC4F830319B
:100D1800266E264D2B68B3F90200FFF7BFFB01468C
:100D28002046B047D4F8C4606B68B3F90200FFF7F7
:100D3800B5FB014604F16400B047D4F82861AB68FC
:100D4800B3F90200FFF7AAFB014604F1C800B04757
:100D5800D4F88C61EB68B3F90200FFF79FFB0146FA
:100D680004F59670B047276BD4F89480D4F8F850FF
:100D7800D4F85C01FFF75CFC06B22846FFF758FC84
:100D880005B24046FFF754FC04B23846FFF750FC62
:100D980033462A46214600B200F0B6F8032000F098
:100DA8000BFAACE72805002000002041AC04002025
:100DB8000000C8C200401C4600007AC482B000216E
:100DC80000910B4B5A6C42F480425A645A6C02F4FC
:100DD80080420092009A01911A6C42F080521A6483
:100DE8001B6C03F080530193019B02B0704700BF56
:100DF80000380240FEE7FEE7FEE7FEE7FEE7704741
:100E08007047704708B500F0C5F908BD08B5024835
:100E180000F09FFC08BD00BF5C04002008B5024834
:100E280000F097FC08BD00BF5C040020704700007C
:100E3800DFF834D00D480E490E4A002302E0D4589A
:100E4800C4500433C4188C42F9D30B4A0B4C00230A
:100E580001E013600432A242FBD3FFF7E7FF01F081
:100E6800FFF9FFF707FF704700000220000000208D
:100E78003C040020742400083C040020C006002024
:100E8800FEE7000000B58BB001AB03AA002100F01B
:100E980097FB039BA3F20122062A2DD8013BDBB264
:100EA800174A1370174903EB83004200881831F979
:100EB80002C0A0F808C09DF804E09DF805C04CEAFF
:100EC8000E2C21F802C09DF80620120212B29DF8DD
:100ED80007C042EA0C0242809DF80820120212B2B2
:100EE8009DF809C042EA0C0282809DF80A0003EBD3
:100EF80083035A008B1898710BB05DF804FB00BF90
:100F0800DC040020E004002010B582B08E46944630
:100F18000F494FF400720A6000228A60CA600822F2
:100F28000A610C4A0412147050704FEA2E20907017
:100F380082F803E04FEA2C20107182F805C01812DD
:100F48009071D37101AB044800F0BCFA02B010BD37
:100F5800C4040020BC0400205C04002000F003004E
:100F680000EB8000014B03EB40007047E0040020D9
:100F780010B58AB0012208920023069307920093C5
:100F8800019302930393059304930E4C69462046FC
:100F980000F0CCF9204600F067FA0221204600F064
:100FA800BAFB0E2309930593074C6946204600F0C7
:100FB800BDF9204600F058FA0221204600F0ABFBAC
:100FC8000AB010BD5C0400208404002070B50446FB
:100FD80015461E460170BDF81400FFF75BFA606401
:100FE800049B23643046FFF755FAE0632846FFF771
:100FF80051FAA063BDF91800FFF750FAA064BDF9D3
:101008001C00FFF74BFA6060089BE360099B2361B3
:101018000A9B63610023236370BDC1600261436161
:1010280070472DE9F84304460D46C36C036500F08C
:10103800BDF8E064236DC01A84F85400A561E7691F
:101048002762236B636329466068FFF771F90546D9
:10105800E0610021FFF7E2FA002849D02946206C18
:10106800FFF7BEFA002840D0E1682846FFF7A8F845
:101078008046606221692846FFF7A2F8A16AFFF757
:1010880059F90646A062D4F8149039462846FFF765
:101098004FF901464846FFF793F80746E062E56BCB
:1010A80029463046FFF7BAFA00B1A56205F10045B6
:1010B8002946A06AFFF794FA00B1A562A16A4046E2
:1010C800FFF738F901463846FFF734F92063A56B76
:1010D8002946FFF7A3FA00B1256305F10045294623
:1010E800206BFFF77DFA00B12563206BBDE8F8831C
:1010F80005F10041B3E70000034B8365034BC3656B
:10110800034B0366704700BFD50F00082310000883
:101118002B10000810B504460E4B18784FF47A735C
:10112800B3FBF0F30C4A1068B0FBF3F000F08EFC50
:1011380068B90F2C01D901200AE0002221464FF09E
:10114800FF3000F03DFC054B1C60002000E0012052
:1011580010BD00BF0400002000000020080000208F
:1011680008B50B4B1A6842F400721A601A6842F408
:1011780080621A601A6842F480721A60032000F0D4
:101188000DFC0F20FFF7C6FFFFF718FE002008BD73
:10119800003C0240034A1168034B1B780B44136060
:1011A800704700BFB806002004000020014B1868F3
:1011B800704700BFB806002038B50446FFF7F6FFB1
:1011C8000546B4F1FF3F02D0044B1B781C44FFF7DF
:1011D800EDFF401BA042FAD338BD00BF0400002039
:1011E800002800F0A18038B5044690F82030D3B12B
:1011F8002268136843F001031360FFF7D7FF054621
:1012080023685A6812F0010F10D1FFF7CFFF401B77
:101218000A28F5D9636A43F400336362052384F826
:101228002030012038BDFFF7EBFBE1E71A6822F018
:1012380002021A60FFF7BAFF054623685A6812F0DF
:10124800020F0DD0FFF7B2FF401B0A28F5D9636AD9
:1012580043F400336362052384F820300120E1E77A
:10126800227E012A3DD01A6822F080021A60637E2D
:10127800012B3BD02268136823F040031360A37E40
:10128800012B39D02268136823F020031360E37E12
:10129800012B37D02268136843F010031360237FB3
:1012A800012B35D02268136823F008031360637F8D
:1012B800012B33D02268136823F004031360A3685A
:1012C800E268134322691343626913436268013A6F
:1012D80021681343CB6100206062012384F8203029
:1012E800A0E71A6842F080021A60C0E72268136813
:1012F80043F040031360C2E72268136843F02003F9
:101308001360C4E72268136823F010031360C6E76C
:101318002268136843F008031360C8E7226813685B
:1013280043F004031360CAE70120704790F82030A7
:10133800013BDBB2012B05D9436A43F480234362A6
:101348000120704710B5474BD3F8002242F0010244
:10135800C3F80022D3F8002222F47C52C3F80022FA
:10136800D3F80022486A42EA0022C3F800224A69F8
:1013780002F01F02012000FA02F2D3F81C026FEA01
:10138800020C20EA0200C3F81C02CB69CBB9354B2A
:10139800D3F80C020CEA0000C3F80C028C884869E8
:1013A800D1F80CE044EA0E44483043F830408C68E9
:1013B800088840EA04404C6904F1480E03EBCE0368
:1013C8005860CB69012B1ED08B69002B35D125487D
:1013D800D0F804320CEA0303C0F804320B699BBB53
:1013E8002048D0F814320CEA0303C0F814320B6A10
:1013F800012B30D01B4AD2F8003223F00103C2F887
:101408000032002010BD174BD3F80C021043C3F86C
:101418000C028C884869D1F800E044EA0E44483050
:1014280043F8304088894C69D1F808E040EA0E401A
:10143800483403EBC4035860C6E70A48D0F80432BE
:101448001343C0F80432C9E70648D0F814321343EE
:10145800C0F81432CBE70349D1F81C321A43C1F85B
:101468001C22C7E70064004070B5044690F820507D
:10147800EDB2012D06D0436A43F4002343620125EF
:10148800284670BD022380F820300268136823F0D4
:1014980001031360FFF78AFE064623685B6813F0B2
:1014A800010F0CD0FFF782FE831B0A2BF5D9636A64
:1014B80043F400336362052384F82030E0E7002515
:1014C8006562DDE730B590F820C00468A4680CF1C7
:1014D800FF3C5FFA8CFCBCF1010F6BD814F0E05FA5
:1014E80062D0C4F3016CBCF1020F05D9436A43F41E
:1014F80000034362012062E0012404FA0CF41C603A
:101508008B68002B3DD10D68CB68046843EA4555CC
:101518000CF118031B01E55003680C690CF1180E57
:1015280003EB0E135C600B7D012B35D0D1799379D9
:101538001B0443EA0163517943EA012314790168E2
:10154800234301EB0C11C1F88C31D17893781B043B
:1015580043EA0163517843EA0123117802680B4397
:1015680002EB0C12C2F8883102680CF1180C4FEA31
:101578000C1C52F80C3043F0010342F80C300020E8
:101588001DE04C6843EAC403CC6823430CF11804FB
:10159800240105682B51BFE7036803EB0E13596854
:1015A80041F480715960C1E7436A43F40013436210
:1015B800012004E0436A43F480234362012030BDE4
:1015C80090F820C00CF1FF3C5FFA8CFCBCF1010FD5
:1015D80000F29B8010B451B90468E46814F0030F5A
:1015E80010D1436A43F40013436201207BE004688E
:1015F800246914F0030F05D1436A43F400134362CE
:10160800012070E001F11B042401D0F800C05CF84F
:10161800044004F004049460002C66D101F11B041A
:101628002401D0F800C05CF80440640D146004681C
:1016380001F11B0C4FEA0C1C54F80C4004F0020496
:10164800D46004686444646804F00F041461046896
:1016580064446468C4F30724946104686444646857
:10166800240C5461026802EB0112D2F8B8211A70F6
:10167800026802EB0112D2F8B821C2F307225A70AD
:10168800026802EB0112D2F8B821C2F307429A703D
:10169800026802EB0112D2F8B821120EDA70026861
:1016A80002EB0112D2F8BC211A71026802EB011296
:1016B800D2F8BC21C2F307225A71026802EB011268
:1016C800D2F8BC21C2F307429A71026802EB0112F8
:1016D800D2F8BC21120EDA7189B90268D36843F0D6
:1016E8002003D360002010BC704701F11B042401C3
:1016F800D0F800C05CF80440E408546097E702683A
:10170800136943F020031361ECE7436A43F4802331
:1017180043620120704790F82030013BDBB2012B77
:1017280005D9436A43F48023436201207047026865
:1017380053691943516100207047704770477047DB
:1017480070477047704770477047704770477047D9
:1017580070472DE9F84F054603685C69D3F80480A3
:101768009F68D3F80CB0D3F810A0D3F8189014F0F1
:1017780001063BD017F0010616D001229A6017F037
:10178800020F08D117F0040F0CD117F0080606D085
:101798004FF4805608E0FFF7D0FF002604E0FFF77B
:1017A800CFFF01E04FF4006617F4807F0DD02B685F
:1017B8004FF480729A6017F4007F40F0868017F427
:1017C800806F00F0868046F4005617F4803F0DD0F5
:1017D8002B684FF480329A6017F4003F40F0838002
:1017E80017F4802F00F0838046F4004614F0080FA9
:1017F80007D01BF0100F04D046F400762B68102297
:10180800DA6014F0040F02D01BF0080F79D114F03D
:10181800020F04D02B68DB6813F0030F78D114F0A3
:10182800400F07D01AF0100F04D046F480662B68DA
:1018380010221A6114F0200F02D01AF0080F6BD191
:1018480014F0100F04D02B681B6913F0030F6AD132
:1018580014F4003F02D018F0100F68D114F4803F40
:1018680002D018F0080F69D114F4004F7AD018F09C
:10187800040F74D014F4807F04D019F0010F01D044
:1018880046F0010614F4007F04D019F0020F01D0CD
:1018980046F0020614F4806F04D019F0040F01D04A
:1018A80046F0040614F4006F59D019F0700956D0A8
:1018B800B9F1400F65D058D8B9F1200F5ED0B9F111
:1018C800300F42D146F0200644E02846FFF736FFA5
:1018D8007BE717F4006F02D046F4804675E7284688
:1018E800FFF72FFF71E72846FFF729FF7EE717F478
:1018F800002F02D046F4803678E72846FFF722FF0B
:1019080074E72B680822DA602846FFF71CFF7EE799
:101918002846FFF7B7FA82E72B6808221A6128469B
:10192800FFF713FF8CE72846FFF70EFF90E72B68B9
:1019380010225A602846FFF709FF8FE72B68082214
:101948005A602846FFF703FF8EE7B9F1100F01D15F
:1019580046F008062A68936923F0700393612B68A0
:1019680004225A609EB9BDE8F88FB9F1500F0BD028
:10197800B9F1600FEED146F48076EBE746F0100639
:10198800E8E746F04006E5E746F08006E2E76B6ADE
:101998001E436E622846FFF7DBFEE4E7074AD3687A
:1019A80023F4E0631B041B0C000200F4E060034313
:1019B80043F0BF6343F40033D360704700ED00E0A9
:1019C80000B5194BDB68C3F30223C3F1070CBCF164
:1019D800040F28BF4FF0040C03F1040EBEF1060FEC
:1019E80018D9033B4FF0FF3E0EFA0CFC21EA0C011C
:1019F80099400EFA03F322EA0303194300280BDB8C
:101A08000901C9B200F1604000F5614080F8001397
:101A18005DF804FB0023E5E700F00F000901C9B2F7
:101A2800024B1954F4E700BF00ED00E014ED00E0AC
:101A3800002807DB00F01F02400901239340024AF7
:101A480042F82030704700BF00E100E00138B0F1F3
:101A5800807F0BD24FF0E0235861054AF02182F8CD
:101A680023100020986107221A61704701207047EF
:101A780000ED00E000230F2B00F2E48070B582B087
:101A880060E085685E000324B44025EA0405CC685C
:101A9800B4402C438460456825EA02054C68C4F3C9
:101AA80000129A402A4342605AE0DC08083450F891
:101AB800246003F0070295000F22AA4026EA020ECE
:101AC8000A69AA4042EA0E0240F824205CE0072294
:101AD80000E0002202FA0EF22A4302345A4D45F879
:101AE80024205A4A94686FEA0C0224EA0C054E68CE
:101AF80016F4801F01D04CEA0405544CA560E46834
:101B080002EA04054E6816F4001F01D04CEA0405E9
:101B18004E4CE560646802EA04054E6816F4003F1E
:101B280001D04CEA0405494C6560246822404D68A0
:101B380015F4803F01D04CEA0402444C2260013382
:101B48000F2B7DD801229A400C6804EA020C32EA75
:101B58000404F4D14C6804F00304013C012C90D92E
:101B68004A6802F00302032A09D0C4685D00032210
:101B7800AA4024EA02048A68AA402243C2604A684A
:101B880002F00302022A90D004684FEA430E0322AF
:101B980002FA0EF224EA02044A6802F0030202FA88
:101BA8000EF2224302604A6812F4403FC7D0002276
:101BB8000192274A546C44F480445464526C02F4F1
:101BC80080420192019A9C08A51C1F4A52F8255090
:101BD80003F003024FEA820E0F2202FA0EF225EA00
:101BE80002051C4A90423FF474AF02F580629042AD
:101BF8001AD002F58062904218D002F580629042B5
:101C080016D002F58062904214D002F580629042AC
:101C180012D002F58062904210D002F580629042A4
:101C28003FF455AF082255E7012253E7022251E756
:101C380003224FE704224DE705224BE7062249E736
:101C480002B070BD704700BF00380140003C014041
:101C580000380240000002400AB18161704709045F
:101C680081617047002800F0E08170B582B00446B9
:101C7800036813F0010F3BD09F4B9B6803F00C03E4
:101C8800042B2CD09C4B9B6803F00C03082B21D011
:101C98006368B3F5803F4FD0B3F5A02F52D0964B71
:101CA8001A6822F480321A601A6822F480221A60B4
:101CB8006368002B50D0FFF779FA05468E4B1B68F6
:101CC80013F4003F14D1FFF771FA401B6428F5D9CB
:101CD8000320B1E1884B5B6813F4800FD8D0864BA2
:101CE8001B6813F4003F03D06368002B00F09F814A
:101CF800236813F0020F54D07F4B9B6813F00C0F2E
:101D08003ED07D4B9B6803F00C03082B33D0E3686F
:101D1800002B68D0794B01221A60FFF747FA054675
:101D2800754B1B6813F0020F54D1FFF73FFA401BA5
:101D38000228F5D903207FE16F4A136843F4803302
:101D48001360B5E76C4B1A6842F480221A601A686F
:101D580042F480321A60ABE7FFF728FA0546664B73
:101D68001B6813F4003FC3D0FFF720FA401B642818
:101D7800F5D9032060E1604B5B6813F4800FC6D18E
:101D88005D4B1B6813F0020F03D0E368012B40F092
:101D98005081594A136823F0F803216943EAC103C3
:101DA8001360236813F0080F42D063696BB3534B79
:101DB8000122C3F8802EFFF7F9F905464E4B5B6FF9
:101DC80013F0020F34D1FFF7F1F9401B0228F5D9BF
:101DD800032031E1484A136823F0F803216943EAF4
:101DE800C1031360DDE7454B00221A60FFF7DEF9F7
:101DF8000546414B1B6813F0020FD2D0FFF7D6F906
:101E0800401B0228F5D9032016E13C4B0022C3F8F9
:101E1800802EFFF7CBF90546374B5B6F13F0020FA7
:101E280006D0FFF7C3F9401B0228F5D9032003E1C8
:101E3800236813F0040F77D02F4B1B6C13F0805FCF
:101E480033D1002301932C4B1A6C42F080521A6450
:101E58001B6C03F080530193019B0125284B1B68E1
:101E680013F4807F23D0A368012B34D0052B38D0FE
:101E7800214B1A6F22F001021A671A6F22F004022E
:101E88001A67A368002B3DD0FFF790F906461A4B56
:101E98001B6F13F0020F46D1FFF788F9801B41F240
:101EA80088339842F3D90320C6E00025D6E7144AC0
:101EB800136843F480731360FFF778F90646104BF4
:101EC8001B6813F4807FCED1FFF770F9801B0228BE
:101ED800F5D90320B0E0084A136F43F001031367F4
:101EE800CFE7054B1A6F42F004021A671A6F42F0E7
:101EF80001021A67C5E700BF0038024000004742E8
:101F080000700040FFF752F90646524B1B6F13F062
:101F1800020F08D0FFF74AF9801B41F28833984234
:101F2800F3D9032088E0EDB9A369002B00F0838082
:101F3800484A926802F00C02082A51D0022B17D0A6
:101F4800454B00221A66FFF731F90446414B1B68DE
:101F580013F0007F42D0FFF729F9001B0228F5D9BA
:101F6800032069E03B4A136C23F080531364DBE7DA
:101F7800394B00221A66FFF719F90546354B1B68DD
:101F880013F0007F06D0FFF711F9401B0228F5D99E
:101F9800032051E0E369226A1343626A43EA821329
:101FA800A26A5208013A43EA0243E26A43EA026338
:101FB800284A5360284B01221A66FFF7F7F80446AF
:101FC800244B1B6813F0007F06D1FFF7EFF8001BC6
:101FD8000228F5D903202FE000202DE000202BE077
:101FE800012B2BD01B4B5B6803F48001E269914203
:101FF80026D103F03F02216A8A4223D1616A47F65B
:10200800C0721A40B2EB811F1ED103F44031A26A9C
:102018005208013AB1EB024F18D103F07063E26A3B
:10202800B3EB026F14D1002006E0012070470120B5
:1020380002E0012000E0002002B070BD0120FBE7B3
:102048000120F9E70120F7E70120F5E70120F3E790
:102058000120F1E7003802400000474208B5254B4F
:102068009B6803F00C03042B3FD0082B3FD1214B76
:102078005A6802F03F025B6813F4800F12D01D4BC0
:102088005968C1F388111C480023A1FB0001FEF721
:10209800F5FA184B5B68C3F3014301335B00B0FBEF
:1020A800F3F025E0134B5968C1F3881C4FEA4C1133
:1020B800B1EB0C006EEB0E0E4FEA8E1343EA906301
:1020C8008101091A63EB0E03DB0043EA5173C9006F
:1020D80011EB0C0C43F10003990200234FEA8C200A
:1020E80041EA9C51FEF7CAFAD3E7034800E00348E7
:1020F80008BD00BF00380240001BB7000024F400F0
:10210800002800F09B8070B50D4604464F4B1B68B5
:1021180003F007038B4208D2CBB24C4A1370136802
:1021280003F007038B4240F08B80236813F0020F03
:1021380017D013F0040F04D0454A936843F4E053D2
:102148009360236813F0080F04D0414A936843F45E
:10215800604393603E4A936823F0F003A1680B4301
:102168009360236813F0010F32D06368012B21D0EC
:102178009A1E012A25D9364A126812F0020F61D038
:1021880033498A6822F0030213438B60FFF70EF885
:1021980006462F4B9B6803F00C036268B3EB820F73
:1021A80016D0FFF703F8801B41F288339842F0D924
:1021B800032042E0264A126812F4003FE0D10120D1
:1021C8003BE0234A126812F0007FD9D1012034E0A5
:1021D8001E4B1B6803F00703AB4207D9EAB21B4B3F
:1021E8001A701B6803F00703AB422DD1236813F064
:1021F800040F06D0164A936823F4E053E1680B43B2
:102208009360236813F0080F07D0114A936823F4EA
:102218006043216943EAC1039360FFF71FFF0C4B3A
:102228009B68C3F303130B4AD35CD8400A4B18606E
:102238000A4B1868FEF76EFF002070BD012070473A
:102248000120FAE70120F8E70120F6E7003C024008
:10225800003802404C24000800000020080000203C
:1022680070B50D4E0D4D761BB61006D0002455F8EE
:10227800043B01349847A642F9D1094E094D761B13
:1022880000F0D4F8B61006D0002455F8043B013409
:102298009847A642F9D170BD682400086824000850
:1022A8007024000868240008830730B548D0541EFD
:1022B800002A3FD0CAB2034601E0013C3AD303F8F2
:1022C800012B9D07F9D1032C2DD9CDB245EA05255F
:1022D8000F2C45EA054536D9A4F1100222F00F0C5F
:1022E80003F1200EE6444FEA121C03F1100242E902
:1022F800045542E9025510327245F8D10CF1010239
:1023080014F00C0F03EB021204F00F0C13D0ACF115
:10231800040323F003030433134442F8045B934299
:10232800FBD10CF003042CB1CAB21C4403F8012BF6
:102338009C42FBD130BD64461346002CF4D1F9E72A
:1023480003461446BFE71A46A446E0E7024B13B11A
:10235800024800F005B87047000000007523000827
:10236800002301461A46184600F01AB838B5084B3B
:10237800084D5B1B9C1007D0043B1D44013C55F8DD
:1023880004399847002CF9D1BDE8384000F054B81A
:102398007424000870240008704700BF704700BF0D
:1023A8002DE9F047DFF87CA00646DAF800009846E9
:1023B8000F469146FFF7F0FF1B4B1B68D3F84841C7
:1023C80024B365681F2D26DC5EB96B1C0235DAF86C
:1023D8000000636044F82570FFF7E0FF0020BDE8C7
:1023E800F08704EB85010123C1F88890D4F888218F
:1023F800AB401A43022EC4F88821C1F80881E4D101
:10240800D4F88C211343C4F88C31DEE703F5A674A5
:10241800C3F84841D5E7DAF80000FFF7BFFF4FF0EF
:10242800FF30DCE7380400205C240008F8B500BF62
:10243800F8BC08BC9E467047F8B500BFF8BC08BC9D
:042448009E467047F5
:10244C000000000000000000010203040607080958
:04245C00100000204C
:0824600054E2FF7F01000000BF
:0824680055230008AD01000836
:0424700089010008D6
:102474000024F4000100000010000000000000002F
:1024840000000000FC02002064030020CC030020B4
:102494000000000000000000000000000000000038
:1024A4000000000000000000000000000000000028
:1024B4000000000000000000000000000000000018
:1024C4000000000000000000000000000000000008
:1024D40000000000000000000000000000000000F8
:1024E40000000000000000000000000000000000E8
:1024F40000000000000000000000000000000000D8
:1025040000000000000000000000000000000000C7
:1025140000000000000000000000000000000000B7
:1025240000000000000000000100000000000000A6
:102534000E33CDAB34126DE6ECDE05000B0000006B
:102544000000000000000000000000000000000087
:102554000000000000000000000000000000000077
:102564000000000000000000000000000000000067
:102574000000000000000000000000000000000057
:0C28A4000000000000000000BC06002046
:0400000508000E39A8
:00000001FF
